:020000040800F2
:100000007007002031310008310500083305000871
:10001000370500083B0500083F0500080000000008
:100020000000000000000000000000004305000880
:1000300045050008000000004705000849050008C4
:100040004B3100084B3100084B3100084B310008A0
:100050004B3100084B3100084B3100084B31000890
:100060004B3100084B3100084B3100084B31000880
:100070004B3100084B3100084B3100084B31000870
:100080004B3100084B3100084B3100084B31000860
:100090004B3100084B3100084B3100084B31000850
:1000A0004B3100084B3100084B3100084B31000840
:1000B0004B3100084B3100084B3100084B31000830
:1000C0004B3100084B3100084B3100084B31000820
:1000D0004B310008A53000084B3100084B310008B7
:1000E0004B3100084B3100084B3100084B31000800
:1000F0004B3100084B3100084B3100084B310008F0
:100100004B3100084B3100084B3100084B310008DF
:100110004B3100084B3100084B3100084B310008CF
:100120004B3100084B3100084B3100084B310008BF
:1001300000F002F800F03FF80AA090E8000C8244BA
:100140008344AAF10107DA4501D100F034F8AFF297
:10015000090EBAE80F0013F0010F18BFFB1A43F0A5
:10016000010318478C530000AC530000103A24BF21
:1001700078C878C1FAD8520724BF30C830C144BF0C
:1001800004680C607047000000230024002500264E
:10019000103A28BF78C1FBD8520728BF30C148BFEA
:1001A0000B607047782904F00F83002070471FB55B
:1001B0001FBD10B510BD04F0BFFB1146FFF7F7FFE0
:1001C00000F008F804F0DDFB03B4FFF7F2FF03BC16
:1001D00002F00AFF86B00024A14600264FF0010875
:1001E00000F023FA02F090FE02F0F8FE4FF41650F1
:1001F00002F009FF00F09AFA02F042FD00F082FDE1
:100200000120142307220F210090022002F0C0FDDC
:100210004FF478409949088099A232213C2002F09D
:1002200002FD9BA246213C2002F0FDFC9BA25A212C
:100230003C2002F0F8FC9DA26E213C2002F0F3FC71
:100240009DA282213C2002F0EEFC9FA296213C2040
:1002500002F0E9FC1F2089490880A0A2AA213C20C5
:1002600002F0E1FC9FA2BE213C2002F0DCFCA0A237
:10027000FA213C2002F0D7FCFEE00421A04803F064
:100280006AF88246BAF1010F0DD19E480088401CE1
:100290009C49088008460088B0F5806F01D1002095
:1002A00008804FF0000A002002F01DFD0546012DD8
:1002B00044D100242EE0301904A90855042C0DDA8D
:1002C00080201021CDE9001004A90A5D3C2101EB3A
:1002D00044100323D22102F019FC0EE080201021EB
:1002E000CDE9001004A90A5D211F3C2303EB411155
:1002F00088B20323E62102F009FC00201021032329
:10030000CDE900107F4802881E213C2002F0FEFB50
:10031000601CC4B2082CCEDB082104A802F09FFDAB
:1003200007462FB178A2BE218C2002F07CFC2CE085
:1003300077A2BE218C2002F076FC26E0022D24D18B
:10034000B8F1000F01D1012000E0002080466D4887
:10035000CDF80080038801220221002002F018FD60
:100360004FF4784045490880B8F1000F05D16AA2E2
:1003700082213C2002F057FC04E04FA282213C2065
:1003800002F051FC1F203D49088002A802F09BFDAD
:1003900005468DB34FF6FF704FF49B7382224FF4E6
:1003A000877100903C2002F0C0F9002422E0042C68
:1003B0000EDA80201021CDE9001002A90A5D3C214F
:1003C00001EB441003234FF4877102F09FFB0FE011
:1003D00080201021CDE9001002A90A5D211F3C23D5
:1003E00003EB411188B203234FF4917102F08EFBAD
:1003F000601CC4B2AC42DADB4248008800EB40002B
:1004000048F6A04191FBF0F0474908600020102118
:100410000323CDE900103B4802881E213C2002F056
:1004200075FB002010210323CDE900103E481E215A
:100430000268782002F06AFB09F1010000F0FF0970
:100440000A2002F09EFDB9F1140F15D1374800685B
:1004500008B9012000E00020344908604FF000098D
:10046000701CC6B28020102103233246CDE9001053
:10047000AA216C2002F04AFBFFE600001C000020CD
:10048000576172536869702053544D333200000035
:1004900043414E20544553540000000041544F4DF9
:1004A00040414C49454E54454B00000032303136F6
:1004B0002F392F32340000004C6F6F704261636B34
:1004C000204D6F64650000004B4559303A53656E0E
:1004D00064204B4559313A4D6F646500436F756E2A
:1004E000743A000053656E6420446174613A000000
:1004F0005265636569766520446174613A00000065
:1005000000100140000000204661696C6564000035
:100510004F4B2020202000004E6E6F726D616C20CA
:100520004D6F64652000000004000020A0012142FE
:10053000704700BFFEE700BFFEE700BFFEE700BF59
:10054000FEE7704770477047704700000CB5002009
:10055000019000906C48006840F480306A4908605F
:1005600000BF6948006800F4003000900198401C0A
:100570000190009818B90198B0F5A06FF1D16248C8
:10058000006800F4003010B10120009001E000206C
:1005900000900098012843D15C48006840F01000AA
:1005A0005A4908600846006820F0030008600846C1
:1005B000006840F0020008605348406852494860B3
:1005C0000846406848600846406840F480604860DB
:1005D0000846406820F47C1048600846406840F4B3
:1005E000E81048600846006840F08070086000BF6E
:1005F0004548006800F000700028F9D04248406883
:1006000020F00300404948600846406840F002007E
:10061000486000BF3C48406800F00C000828F9D151
:100620000CBD10B5FFF792FF10BD10B5364800683D
:1006300040F00100344908600846406834490840E9
:100640003149486008460068324908402E49086030
:100650000846006820F4802008600846406820F4BE
:10066000FE0048604FF41F008860FFF7DAFF4FF08C
:1006700000602949086010BD10B50021002000224B
:10068000214B5B6803F00C0121B1042906D0082935
:1006900028D107E0214B224C236027E01F4B204C40
:1006A000236023E0184B5B6803F47010164B5B6803
:1006B00003F48032022303EB904022B9194B4343E9
:1006C000174C23600DE0104B5B6803F4003323B13B
:1006D000144B4343124C236003E0104B4343104C34
:1006E000236003E00D4B0E4C236000BF00BF064BA0
:1006F0005B68C3F303130C4CE15C094B1B68CB40F4
:10070000074C236010BD0000001002400020024092
:100710000000FFF8FFFFF6FE08ED00E000127A008F
:100720000800002000093D000C00002008B5012150
:10073000242003F039F84FF48070ADF80000102049
:100740008DF8030003208DF802006946094802F085
:100750006FFD4FF48071074802F017FE0420ADF8DA
:1007600000006946044802F063FD0421024802F0DB
:100770000CFE08BD00080140001401404FF48071D8
:10078000FE4A516149005161FD4908608021516173
:10079000116189001161704710B54FF08830F84938
:1007A0000C390860091D08600020F54908608815AB
:1007B000F24908614000486140204861F1480088E2
:1007C00048F68911884202D1022002F0B6FB40208F
:1007D000EA490861EA48001F006884B248150861C8
:1007E0004FF03330E6490C390860091D08604FF6B8
:1007F000FF70E3490860204610BD10B504460B4663
:100800002046FFF7BBFF4FF48070DC4908614000D1
:100810004861DB480360802048610861800008610E
:1008200010BD10B504462046FFF7A8FFFFF7B4FF40
:1008300010BD00B5D348008849F24131884203D148
:100840002C20FFF79BFF02E02220FFF797FF00BD5F
:100850004FF48071C94A116149005161C84908606B
:1008600080215161116189001161704730B50146E5
:1008700001F01F04C1F34513CA0AE50205EB431555
:100880001544A8B230BD2DE9F04105460E46F02DC5
:1008900002DAB6F5A07F02DB0020BDE8F081314628
:1008A000284604F079F8B748008849F24131884277
:1008B00003D12E20FFF762FF02E02220FFF75EFF48
:1008C0004FF08830AE490C390860091D08604FF6BA
:1008D000FF70AB4908608815A8490861400048616D
:1008E0004020486108614861A648008848F689119F
:1008F000884202D1022002F020FB40209F4908617B
:100900009F48001F006884B29E48008849F2413128
:1009100088420DD140209949486108619848001FDC
:1009200000681FFA80F8E7B24FF6FF7000EA072769
:100930004FF40070914908614FF0333090490C3901
:100940000860091D08604FF6FF708D4908608D48EA
:10095000008844F23551884210D08A480088091F27
:1009600088420BD08748008848F68911884205D014
:10097000844800884BF20551884201D120468CE71B
:100980008048008849F24131884207D1E012C00214
:10099000B91240EA411040EAE8207EE72046FFF71E
:1009A00065FF7AE700B57748008849F2413188420F
:1009B00003D12920FFF7E2FE04E040F27311072083
:1009C000FFF71BFF00BD00B56E48008849F24131BA
:1009D000884203D12820FFF7D1FE03E00021072041
:1009E000FFF70BFF00BD70B50546002400266548E3
:1009F000008849F2413188427ED1082D1CD2DFE8BF
:100A000005F00406090C0F12151800BF14E044F09D
:100A1000800411E044F040040EE044F0C0040BE018
:100A200044F0200408E044F0600405E044F0A00431
:100A300002E044F0E00400BF00BF362644F00804A2
:100A400021463046FFF7D9FE04F02000002875D07B
:100A50002A20FFF793FE4FF4807048490861400058
:100A60004861002046490860802044494861086187
:100A70008000086140100861400048610020404942
:100A8000086080203D49486108618000086140108D
:100A900008614000486101203949086080203749D9
:100AA00048610861800008614010086140004861A9
:100AB0003F20334908608020304948610861800048
:100AC00008612B20FFF75AFE4FF480702B49086114
:100AD0004000486100202A49086080202749486179
:100AE00008618000086140100861400048610020F2
:100AF00023490860802000E09AE0204948610861AD
:100B000080000861401008614000486100201C49D5
:100B10000860802019494861086180000861401020
:100B2000086140004861EF201549086080201349A2
:100B30004861086180000861ACE0FFE72A20FFF708
:100B40001DFE4FF480700D4908614000486100208F
:100B50000B490860802009494861086180000861EC
:100B6000401008614000486100200549086080206D
:100B70000249486108618000086105E000100140F9
:100B80000C0C01402000002040100861400048612A
:100B90000020FE4908608020FD494861086180000E
:100BA00008614010086140004861EF20F749086083
:100BB0008020F74948610861800008612B20FFF719
:100BC000DDFD4FF48070F24908614000486100206B
:100BD000EE4908608020EE494861086180000861A4
:100BE00040100861400048610020E849086080200A
:100BF000E7494861086180000861401008614000D1
:100C000048610120E14908608020E14948610861AC
:100C10008000086140100861400048613F20DB49C6
:100C200008608020DA49486108618000086131E08D
:100C3000082D1CD2DFE805F004070A0D0F12151865
:100C400044F0300413E044F0100410E044F02004B9
:100C50000DE000BF0BE044F0380408E044F0280445
:100C600005E044F0180402E044F0080400BF00BFAF
:100C7000C848008848F68911884204D1112646F2F6
:100C80004000044302E0032644F4805421463046E9
:100C9000FFF7B3FD70BD70B504460D4629462046EA
:100CA00003F07AFEFFF7C5FD4FF48070B849086184
:100CB00040004861B8480088B44908608020B449C1
:100CC000486108618000086170BD70B50446002568
:100CD0000021084603F060FEFFF7ABFD00BF0DE00A
:100CE0004FF48070AA49086140004861A748046039
:100CF000802048610861800008616D1CB5F5963F51
:100D0000EED370BD08B50121192002F04DFD01217F
:100D1000A24802F05EFB4FF4F860ADF8000010202E
:100D20008DF8030003208DF802006946984802F010
:100D30007FFA4FF4F861964802F027FB4FF6FF70F8
:100D4000ADF80000694691480C3802F071FA4FF690
:100D5000FF718E480C3802F018FB322002F011F9B6
:100D600001210020FFF749FD322002F00AF900209E
:100D7000FFF757FD874908800846008828B10846D4
:100D800000884FF6FF7188421BD1D320FFF7F6FC95
:100D9000FFF702FDFFF700FDFFF7FEFC00F0BF00CC
:100DA0007C490880084600884FF6FF7101EA002060
:100DB00078490880FFF7F0FC7649098808437549AF
:100DC00008807448018876A003F0BEFC7148008852
:100DD00049F2413188427DD1CF20FFF7CFFC4FF45B
:100DE00080706B49086140004861002067490860D5
:100DF00080206749486108618000086140100861EF
:100E000040004861C1206149086080206049486114
:100E1000086180000861401008614000486130208E
:100E20005A49086080205A49486108618000086179
:100E3000ED20FFF7A3FC4FF4807055490861400096
:100E40004861642051490860802051494861086127
:100E500080000861401008614000486103204B4950
:100E6000086080204A49486108618000086140109C
:100E700008614000486112204449086080204449CC
:100E800048610861800008614010086140004861C5
:100E900081203E49086080203D494861086180000A
:100EA0000861E820FFF76AFC4FF480703849086158
:100EB00040004861852035490860802034494861F8
:100EC00008618000086140100861400048611020FE
:100ED0002E4900E08AE3086080202D4948610861BE
:100EE0008000086140100861400048617A2027496D
:100EF0000860802026494861086180000861CB2095
:100F0000FFF73CFC4FF480702149086140004861C4
:100F100039201E49086080201D4948610861800011
:100F2000086140100861400048612C2017490860A2
:100F300080201749486108618000086140100861FD
:100F40004000486100201149086080201049486134
:100F50000861800008614010086140004861342049
:100F60000A49086080200A494861086180000861D8
:100F70004010086140004861022004490860802058
:100F80000349486108618000086111E00C0C0140D0
:100F900000100140200000201C0000200002300052
:100FA000204C43442049443A25780D0A00000000B3
:100FB000F720FFF7E3FB4FF48070FE490861400023
:100FC00048612020FC4908608020FA494861086196
:100FD00080000861EA20FFF7D1FB4FF48070F549EB
:100FE0000861400048610020F34908608020F14911
:100FF0004861086180000861401008614000486154
:101000000020ED4908608020EA49486108618000BD
:101010000861C020FFF7B2FB4FF48070E54908611A
:10102000400048611B20E44908608020E149486194
:10103000086180000861C120FFF7A0FB4FF48070B9
:10104000DC490861400048610120DB4908608020DC
:10105000D8494861086180000861C520FFF78EFB10
:101060004FF48070D3490861400048613020D24974
:1010700008608020CF494861086180000861401005
:101080000861400048613020CB4908608020C94990
:101090004861086180000861C720FFF76FFB4FF4CB
:1010A0008070C449086140004861B720C2490860A7
:1010B0008020C04948610861800008613620FFF740
:1010C0005DFB4FF48070BB490861400048614820D7
:1010D000B94908608020B74948610861800008610B
:1010E0003A20FFF74BFB4FF48070B2490861400093
:1010F00048615520B04908608020AE4948610861C8
:1011000080000861B120FFF739FB4FF48070A949D6
:101110000861400048610020A74908608020A54977
:101120004861086180000861401008614000486122
:101130001A20A149086080209E494861086180000A
:101140000861B620FFF71AFB4FF4807099490861D7
:10115000400048610A20984908608020954948610C
:101160000861800008614010086140004861A220C9
:101170009149086080208F494861086180000861BA
:10118000F220FFF7FBFA4FF480708A4908614000B3
:1011900048610020884908608020864948610861CC
:1011A000800008612620FFF7E9FA4FF4807081493A
:1011B00008614000486101207F49086080207D4926
:1011C0004861086180000861E020FFF7D7FA4FF41A
:1011D000807078490861400048610F2076490860B6
:1011E00080207449486108618000086140100861EE
:1011F000400048612A207049086080206D4948619C
:1012000008618000086140100861400048612820A2
:101210006949086080206749486108618000086169
:101220004010086140004861082063490860802040
:101230006049486108618000086140100861400011
:1012400048610E205C49086080205A494861086165
:10125000800008614010086140004861082056493C
:10126000086080205349486108618000086140108F
:1012700008614000486154204F49086080204D4972
:1012800048610861800008614010086140004861C1
:10129000A9204949086080204649486108618000CA
:1012A00008614010086140004861432042490860DD
:1012B0008020404948610861800008614010086151
:1012C000400048610A203C49086080203949486153
:1012D00008618000086140100861400048610F20EB
:1012E0003549086080203349486108618000086101
:1012F000401008614000486100202F4908608020AC
:101300002C49486108618000086140100861400074
:10131000486100202849086080202649486108610A
:1013200080000861401008614000486100202249A7
:10133000086080201F4948610861800008614010F2
:1013400008614000486100201B490860802019495D
:101350004861086180000861E120FFF70FFA4FF44F
:1013600080701449086140004861002012490860FB
:1013700080201049486108618000086140100861C0
:101380004000486115200C490860802009494861E7
:101390000861800008614010086140004861172022
:1013A00005490860802003494861086180000861A0
:1013B000401003E0001001400C0C014008614000A7
:1013C00048610720F84908608020F84948610861B1
:1013D0008000086140100861400048611120F24916
:1013E00008608020F1494861086180000861401070
:1013F0000861400048610620EB4908608020EB4905
:10140000486108618000086140100861400048613F
:101410002B20E54908608020E4494861086180008C
:10142000086140100861400048615620DE490860AC
:101430008020DE4948610861800008614010086131
:10144000400048613C20D84908608020D749486165
:101450000861800008614010086140004861052073
:10146000D14908608020D149486108618000086145
:1014700040100861400048611020CB49086080207E
:10148000CA49486108618000086140100861400055
:1014900048610F20C44908608020C4494861086140
:1014A0008000086140100861400048613F20BE494B
:1014B00008608020BD4948610861800008614010D3
:1014C0000861400048613F20B74908608020B74963
:1014D000486108618000086140100861400048616F
:1014E0000F20B14908608020B04948610861800040
:1014F00008612B20FFF742F94FF48070AB49086177
:10150000400048610020A84908608020A749486140
:1015100008618000086140100861400048610020B7
:10152000A14908608020A1494861086180000861E4
:10153000401008614000486101209B4908608020FC
:101540009A494861086180000861401008614000C4
:1015500048613F20944908608020944948610861AF
:10156000800008612A20FFF709F94FF480708F4945
:1015700008614000486100208B49086080208B4949
:1015800048610861800008614010086140004861BE
:1015900000208549086080208449486108618000F6
:1015A0000861401008614000486100207E490860E1
:1015B00080207E4948610861800008614010086110
:1015C00040004861EF2078490860802077494861F1
:1015D0000861800008611120FFF7D0F8782001F041
:1015E000D0FC2920FFF7CAF801F094B870480088B1
:1015F00049F2253188427DD147F6F001E520FFF719
:10160000FCF84FF480710120FFF7F7F84FF4E06128
:101610000220FFF7F2F841F230010320FFF7EDF866
:1016200000210420FFF7E9F840F202210820FFF72B
:10163000E4F800210920FFF7E0F800210A20FFF775
:10164000DCF800210C20FFF7D8F800210D20FFF76F
:10165000D4F800210F20FFF7D0F800211020FFF769
:10166000CCF807211120FFF7C8F800211220FFF75E
:10167000C4F800211320FFF7C0F800210720FFF76E
:10168000BCF841F290611020FFF7B7F840F2272133
:101690001120FFF7B2F89D211220FFF7AEF84FF4AA
:1016A000C8511320FFF7A9F825212920FFF7A5F835
:1016B0000D212B20FFF7A1F807213020FFF79DF81F
:1016C00040F203313120FFF798F803213220FFF771
:1016D00094F840F206213520FFF78FF808213620D4
:1016E000FFF78BF840F206413720FFF786F84FF4FA
:1016F000417100E05EE03820FFF77FF807213920D4
:10170000FFF77BF840F202613C20FFF776F80821F2
:101710003D20FFF772F800215020FFF76EF8EF210F
:101720005120FFF76AF800215220FFF766F840F2D7
:101730003F115320FFF761F84FF427416020FFF776
:101740005CF801216120FFF758F800216A20FFF7BB
:1017500054F800218020FFF750F800218120FFF786
:101760004CF800218220FFF748F800218320FFF782
:1017700044F800218420FFF740F800218520FFF77E
:101780003CF810219020FFF738F84FF4C061922008
:10179000FFF733F840F233110720FFF72EF822212C
:1017A0000020FFF72AF81FE70C0C01400010014051
:1017B00020000020FE48008849F2283188427DD16F
:1017C0001021E720FFF719F801210020FFF715F895
:1017D0004FF480710120FFF710F84FF4E061022010
:1017E000FFF70BF841F230010320FFF706F8002164
:1017F0000420FFF702F840F207210820FEF7FDFF62
:1018000000210920FEF7F9FF00210A20FEF7F5FF6D
:1018100001210C20FEF7F1FF00210D20FEF7EDFF66
:1018200000210F20FEF7E9FF00211020FEF7E5FF61
:1018300007211120FEF7E1FF00211220FEF7DDFF56
:1018400000211320FEF7D9FF322001F09AFB41F26C
:1018500090511020FEF7D1FF40F227211120FEF712
:10186000CCFF322001F08DFB9C211220FEF7C5FF3A
:10187000322001F086FB4FF4C8511320FEF7BDFF64
:1018800023212920FEF7B9FF0E212B20FEF7B5FFFB
:10189000322001F076FB00212020FEF7AEFF40F25F
:1018A0003F112120FEF7A9FF322001F06AFB07213A
:1018B0003020FEF7A2FF40F2077100E087E0312000
:1018C000FEF79BFF06213220FEF797FF40F20471DE
:1018D0003520FEF792FF41F604713620FEF78DFFAA
:1018E00004213720FEF789FF00213820FEF785FF0D
:1018F00040F206713920FEF780FF40F201713C2072
:10190000FEF77BFF0F213D20FEF777FF322001F02D
:1019100038FB00215020FEF770FFEF215120FEF729
:101920006CFF00215220FEF768FF40F23F11532068
:10193000FEF763FF4FF427416020FEF75EFF0121B1
:101940006120FEF75AFF00216A20FEF756FF0021B2
:101950008020FEF752FF00218120FEF74EFF00217C
:101960008220FEF74AFF00218320FEF746FF002178
:101970008420FEF742FF00218520FEF73EFF102164
:101980009020FEF73AFF00219220FEF736FF032158
:101990009320FEF732FF4FF488719520FEF72DFF5C
:1019A00000219720FEF729FF00219820FEF725FF50
:1019B00040F233110720FEF720FF00212020FEF720
:1019C0001CFF40F23F112120FEF717FF0CE678487C
:1019D000008849F22031884204D075480088B0F56B
:1019E000134F7DD100210846FEF707FF4FF48071A9
:1019F0000120FEF702FF4FF4E0610220FEF7FDFE3A
:101A000041F230010320FEF7F8FE00210420FEF72A
:101A1000F4FE40F202210820FEF7EFFE002109202B
:101A2000FEF7EBFE00210A20FEF7E7FE01210C2065
:101A3000FEF7E3FE00210D20FEF7DFFE00210F2060
:101A4000FEF7DBFE322001F09CFA40F20111072084
:101A5000FEF7D3FE322001F094FA4FF486511020A5
:101A6000FEF7CBFE07211120FEF7C7FE4FF4887169
:101A70001220FEF7C2FE4FF430611320FEF7BDFEC8
:101A800000212920FEF7B9FE44F210012B20FEF7B9
:101A9000B4FE00215020FEF7B0FEEF215120FEF7EA
:101AA000ACFE00215220FEF7A8FE40F23F11532069
:101AB000FEF7A3FE4FF41C516020FEF79EFE0121AD
:101AC0006120FEF79AFE00216A20FEF796FE0021B3
:101AD0008020FEF792FE00218120FEF78EFE00E0BE
:101AE0002EE000218220FEF788FE00218320FEF7F1
:101AF00084FE00218420FEF780FE00218520FEF771
:101B00007CFE10219020FEF778FE00219220FEF747
:101B100074FE01219320FEF770FE4FF4887195202A
:101B2000FEF76BFE00219720FEF767FE002198204C
:101B3000FEF763FE40F273110720FEF75EFE53E5E9
:101B40001B48008845F2084188427DD14FF48071DE
:101B50000120FEF752FE4FF4E0610220FEF74DFE39
:101B600041F230010320FEF748FE00210420FEF779
:101B700044FE40F207210820FEF73FFE0021092025
:101B8000FEF73BFE00210A20FEF737FE00210C2065
:101B9000FEF733FE00210D20FEF72FFE00210F205F
:101BA000FEF72BFE142001F0ECF941F2B06101E0E8
:101BB000200000201020FEF720FE01211120FEF75A
:101BC0001CFE01211720FEF718FE4FF49C71122015
:101BD000FEF713FE4FF400611320FEF70EFE0921FD
:101BE0002920FEF70AFE09212A20FEF706FE002121
:101BF000A420FEF702FE00215020FEF7FEFDEF219B
:101C00005120FEF7FAFD00215220FEF7F6FD40F2CA
:101C10003F115320FEF7F1FD4FF41C516020FEF7F9
:101C2000ECFD01216120FEF7E8FD00216A20FEF7AE
:101C3000E4FD00218020FEF7E0FD00218120FEF779
:101C4000DCFD0021822000E027E0FEF7D6FD002128
:101C50008320FEF7D2FD00218420FEF7CEFD002177
:101C60008520FEF7CAFD13219020FEF7C6FD002156
:101C70009220FEF7C2FD03219320FEF7BEFD4FF434
:101C800088719520FEF7B9FD40F273110720FEF729
:101C9000B4FD322001F075F9A6E4FE48008841F257
:101CA000055188427ED100210720FEF7A6FD322093
:101CB00001F067F94FF48E711220FEF79EFD0121AD
:101CC000A420FEF79AFD0F210820FEF796FD0821BB
:101CD0000A20FEF792FD08210D20FEF78EFD40F24E
:101CE00007713020FEF789FD07213120FEF785FDC1
:101CF00040F203613220FEF780FD4FF4E0613320B3
:101D0000FEF77BFD40F202213420FEF776FD022132
:101D10003520FEF772FD41F60F713620FEF76DFD9E
:101D200040F207713720FEF768FD00213820FEF7EA
:101D300064FD00213920FEF760FD40F207713A2072
:101D4000FEF75BFD00213B20FEF757FD07213C20FD
:101D5000FEF753FD00213D20FEF74FFD322001F03C
:101D600010F901210720FEF748FD01211720FEF799
:101D700044FD322001F005F94FF4BD511020FEF76B
:101D80003CFD40F217211120FEF737FD4FF48F7113
:101D90001220FEF732FD4FF470611320FEF72DFD87
:101DA000002100E094E02A20FEF727FD0A212920E7
:101DB000FEF723FD4FF49F711220FEF71EFD002158
:101DC0005020FEF71AFDEF215120FEF716FD0021ED
:101DD0005220FEF712FD40F23F115320FEF70DFD99
:101DE0004FF41C516020FEF708FD01216120FEF731
:101DF00004FD00216A20FEF700FD00218020FEF78F
:101E0000FCFC00218120FEF7F8FC00218220FEF777
:101E1000F4FC00218320FEF7F0FC00218420FEF773
:101E2000ECFC00218520FEF7E8FC13219020FEF752
:101E3000E4FC4FF440719220FEF7DFFC0521932073
:101E4000FEF7DBFC00219520FEF7D7FC0021972050
:101E5000FEF7D3FC00219820FEF7CFFC4FF48071F1
:101E60000120FEF7CAFC4FF4E0610220FEF7C5FC3A
:101E700041F230010320FEF7C0FC00210420FEF7F0
:101E8000BCFC00210C20FEF7B8FC00210F20FEF75F
:101E9000B4FC00212020FEF7B0FC00212120FEF739
:101EA000ACFC21210720FEF7A8FC142001F069F802
:101EB00061210720FEF7A1FC142001F062F840F236
:101EC00073110720FEF799FC142001F05AF86AE418
:101ED000704800884BF2055188427CD100210846A9
:101EE000FEF78BFC00210846FEF787FC0021084620
:101EF000FEF783FC00210846FEF77FFC0121A420A9
:101F0000FEF77BFC142001F03CF84FF41C516020DC
:101F1000FEF773FC40F202210820FEF76EFC4FF43E
:101F200005713020FEF769FC43F215713120FEF790
:101F300064FC40F204613220FEF75FFC40F616615B
:101F40003320FEF75AFC42F211213420FEF755FCF3
:101F50004FF4A8513520FEF750FC48F207513620C7
:101F6000FEF74BFC41F207413720FEF746FC41F2F9
:101F700003413820FEF741FC20213920FEF73DFCCB
:101F80001A219020FEF739FC00211020FEF735FCC5
:101F900007211120FEF731FC00211220FEF72DFC55
:101FA00000211320FEF729FC142000F0EAFF4FF473
:101FB000E6611020FEF721FC40F237111120FEF7F8
:101FC0001CFC142000F0DDFF4FF4DC711220FEF742
:101FD00014FC142000E088E000F0D3FF4FF470619F
:101FE0001320FEF70AFC80212A20FEF706FC482178
:101FF0002920FEF702FC142000F0C3FF4FF480718B
:102000000120FEF7FAFB4FF4E0610220FEF7F5FB3A
:1020100041F230210320FEF7F0FB40F202210820BC
:10202000FEF7EBFB00210A20FEF7E7FB00210C2066
:10203000FEF7E3FB00210D20FEF7DFFB30210E2031
:10204000FEF7DBFB00215020FEF7D7FBEF215120EC
:10205000FEF7D3FB00215220FEF7CFFB40F23F11E9
:102060005320FEF7CAFB4FF41C516020FEF7C5FB5E
:1020700001216120FEF7C1FB00216A20FEF7BDFBB4
:1020800011219020FEF7B9FB4FF4C0619220FEF7BA
:10209000B4FB01E02000002040F202419320FEF753
:1020A000ACFB02219420FEF7A8FB142000F069FF8E
:1020B00001210720FEF7A1FB142000F062FF61213F
:1020C0000720FEF79AFB40F273110720FEF795FBFD
:1020D00000212020FEF791FB00212120FEF78DFB3F
:1020E00022210020FEF789FB14E3FE4800884CF211
:1020F000055188427ED100210846FEF77EFB002173
:102100000846FEF77AFB142000F03BFF002108464A
:10211000FEF773FB00210846FEF76FFB002108461F
:10212000FEF76BFB00210846FEF767FB0121A420A8
:10213000FEF763FB142000F024FF4FF41C516020D5
:10214000FEF75BFB40F606010820FEF756FB40F267
:1021500003713020FEF751FB01213120FEF74DFBCA
:1021600004213220FEF749FB4FF481713320FEF742
:1021700044FB4FF440713420FEF73FFB40F2031163
:102180003520FEF73AFB1F213620FEF736FB40F2E2
:1021900003713720FEF731FB01213820FEF72DFBBC
:1021A00004213920FEF729FB15219020FEF725FB9D
:1021B0004FF482611020FEF720FB40F247211120EE
:1021C000FEF71BFB4FF4DE711220FEF716FB4FF4F7
:1021D00060611320FEF711FB782000F0D2FE4FF46F
:1021E00080710120FEF709FB4FF400710220FEF719
:1021F00004FB00E050E041F230010320FEF7FDFA5D
:1022000008210A20FEF7F9FA00210C20FEF7F5FA62
:1022100020210E20FEF7F1FA00210F20FEF7EDFA43
:1022200000212020FEF7E9FA00212120FEF7E5FA3F
:102230003D212A20FEF7E1FA142000F0A2FE2D2114
:102240002920FEF7DAFA00215020FEF7D6FA4DF2E7
:10225000EF015120FEF7D1FA00215220FEF7CDFA0E
:1022600040F23F115320FEF7C8FA00216120FEF72B
:10227000C4FA00216A20FEF7C0FA4FF440719220A0
:10228000FEF7BBFA05219320FEF7B7FA4FF48071F1
:102290000720FEF7B2FA3DE29248008848F689111D
:1022A00088427DD101210020FEF7A7FA4AF6A40159
:1022B0000320FEF7A2FA00210C20FEF79EFA40F65A
:1022C0000C010D20FEF799FA4FF42C510E20FEF769
:1022D00094FAB0211E20FEF790FA42F63F31012019
:1022E000FEF78BFA4FF4C0610220FEF786FA002158
:1022F0001020FEF782FA46F270011120FEF77DFAF7
:1023000000210520FEF779FA00210620FEF775FA74
:102310004EF61C711620FEF770FA03211720FEF707
:102320006CFA40F233210720FEF767FA00210B20F8
:10233000FEF763FA00210F20FEF75FFA002141202B
:10234000FEF75BFA00214220FEF757FA00214820F1
:10235000FEF753FA40F23F114920FEF74EFA0021F2
:102360004A20FEF74AFA00214B20FEF746FA4FF4C6
:102370006F414420FEF741FA00214520FEF73DFA67
:1023800040F23F114620FEF738FA40F20771302044
:10239000FEF733FA4FF401713120FEF72EFA00E018
:1023A0003DE04FF401713220FEF727FA40F202516E
:1023B0003320FEF722FA40F207513420FEF71DFACF
:1023C0004FF401713520FEF718FA4FF401713620F1
:1023D000FEF713FA40F202513720FEF70EFA40F2F0
:1023E00002313A20FEF709FA40F202313B20FEF7B3
:1023F00004FA00212320FEF700FA00212420FEF732
:10240000FCF94FF400412520FEF7F7F900214F2099
:10241000FEF7F3F900214E20FEF7EFF97AE131489B
:10242000008844F2315188427DD101210020FEF71D
:10243000E4F90A2000F0A5FD41F228611020FEF722
:10244000DCF90E211220FEF7D8F940F639211320CD
:10245000FEF7D3F90A2000F094FD40211120FEF789
:10246000CCF950211520FEF7C8F90A2000F089FDAB
:102470001E211220FEF7C1F90A2000F082FD4FF460
:10248000B1511020FEF7B9F942F639211320FEF7B9
:10249000B4F90A2000F075FD4FF480710120FEF7B9
:1024A000ACF94FF440710220FEF7A7F941F2300178
:1024B0000320FEF7A2F940F202210820FEF79DF961
:1024C00008210A20FEF799F900213020FEF795F93E
:1024D00040F202413120FEF790F94FF4837132202F
:1024E00002E0000020000020FEF787F940F20351CF
:1024F0003320FEF782F94FF482713420FEF77DF924
:1025000040F201313520FEF778F940F207713620AC
:10251000FEF773F940F205313720FEF76EF94FF4FC
:102520000271382000E040E0FEF767F940F60B71D9
:102530003920FEF762F902214120FEF75EF94FF4DF
:102540001C516020FEF759F901216120FEF755F971
:102550004FF404719020FEF750F94FF485719220EA
:10256000FEF74BF904219320FEF747F94FF48071F1
:10257000A020FEF742F901210720FEF73EF92121B4
:102580000720FEF73AF923210720FEF736F9332119
:102590000720FEF732F940F233110720FEF72DF93C
:1025A0000021A020FEF729F9B4E0FA48008844F29F
:1025B00035518842F8D130211520FEF71EF910213F
:1025C0009A20FEF71AF920211120FEF716F943F29E
:1025D00028411020FEF711F902211220FEF70DF913
:1025E00041F238011320FEF708F9282000F0C9FC59
:1025F00012210846FEF701F9282000F0C2FC43F240
:1026000020411020FEF7F9F843F238011320FEF7BD
:10261000F4F8462000F0B5FC00213020FEF7EDF87C
:1026200040F202413120FEF7E8F840F20731322053
:10263000FEF7E3F84FF441713320FEF7DEF8042192
:102640003420FEF7DAF840F201413520FEF7D5F8E4
:1026500040F207713620FEF7D0F840F205313720FE
:10266000FEF7CBF84FF4C2613820FEF7C6F84FF4FE
:10267000C2613920FEF7C1F84FF480710120FEF7E6
:10268000BCF84FF440710220FEF7B7F841F2300178
:102690000320FEF7B2F840F608010820FEF7ADF877
:1026A00008210A20FEF7A9F84FF41C516020FEF71C
:1026B000A4F801216120FEF7A0F84FF49F7190204B
:1026C000FEF79BF84FF480719220FEF796F84FF4D6
:1026D00080719320FEF791F84FF44051A020FEF74F
:1026E0008CF81021A320FEF788F801210720FEF7BF
:1026F00084F821210720FEF780F823210720FEF728
:102700007CF833210720FEF778F840F233110720D8
:10271000FEF773F80020FEF766F901209E49086075
:102720004FF6FF70FEF7D1FA08BD2DE9F05F0546C0
:102730000E4617469846DDF828A04FF0000B002003
:10274000FEF751F9781B401C1FFA80FB34461EE04F
:102750002146284602F020F9FEF76BF84FF00009F9
:1027600011E04FF480708D490861400048618C4849
:10277000C0F800A08020486108618000086109F16C
:1027800001001FFA80F9D945EBDB601C84B2444597
:10279000DEDD0020FEF727F9BDE8F09F2DE9FF4FB1
:1027A00085B081468A460020049003900798A0EBEC
:1027B00009050898A0EB0A06CDF80890CDF804A00A
:1027C000002D01DD012705E00DB9002702E04FF0E3
:1027D000FF376D42002E02DD4FF0010806E016B90A
:1027E0004FF0000802E04FF0FF387642B54201DDBD
:1027F0002C4600E034464FF0000B21E0019A91B2E4
:10280000029A90B2FEF747FA04982844049003987D
:10281000304403900498A04205DD0498001B049006
:102820000298384402900398A04205DD0398001BEB
:1028300003900198404401900BF101001FFA80FBC6
:10284000601C8345DADD09B0BDE8F08F2DE9F04169
:1028500004460D4616461F462B463246294620465C
:10286000FFF79CFF3B46224629462046FFF796FF8E
:102870003B46324639462046FFF790FF3B463246FC
:1028800029463046FFF78AFFBDE8F0812DE9F04781
:1028900006460F469046002445460320A0EB480913
:1028A00048E03A1B91B2721B90B2FEF7F4F93A1B62
:1028B00091B2721990B2FEF7EEF97A1991B2321B09
:1028C00090B2FEF7E8F93A1B91B2721B90B2FEF794
:1028D000E2F97A1B91B2321B90B2FEF7DCF93A1999
:1028E00091B2721990B2FEF7D6F97A1B91B23219F1
:1028F00090B2FEF7D0F97A1991B2321990B2FEF780
:10290000CAF93A1991B2721B90B2FEF7C4F9641C6D
:10291000B9F1000F03DAA000801D814404E0601BC0
:1029200080000A3081446D1E7A1991B2321990B23A
:10293000FEF7B1F9AC42B4DDBDE8F0872DE9F84F00
:102940000746894616461D46BB4616480088009035
:10295000E82F02DCB9F59C7F01DDBDE8F88FA6F118
:102960002000C6B20A98002848D1002443E00C2D6C
:1029700007D106EB46000C4901EB800010F804A0DB
:1029800004E00A4800EB061010F804A04FF000081D
:1029900025E0000020000020A80122420010014094
:1029A0000C0C01401C000020644A0008D84E0008AE
:1029B0000AF0010018B1AE490098088003E0AD4864
:1029C0000088AB49088049463846FEF764F94FEA6B
:1029D0006A0A781C87B208F1010000F0FF0805EBD5
:1029E000D571B8EB610FE3DB5F4609F101001FFA17
:1029F00080F9601CC4B2AC42B9DB2DE0002429E0B0
:102A00000C2D07D106EB46009B4901EB800010F826
:102A100004A004E0994800EB061010F804A04FF061
:102A2000000810E00AF0010038B109EB040291B28D
:102A300007EB080290B2FEF72EF94FEA6A0A08F196
:102A4000010000F0FF0805EBD571B8EB610FE9DB81
:102A5000601CC4B2AC42D3DB85490098088000BF3B
:102A60007BE710B50246012000E050430B00A1F1C6
:102A70000104E1B2F9D110BD2DE9FF4F81B0074645
:102A800091461E460E9D4FF0000A002439E0301B8F
:102A9000401EC1B20A20FFF7E4FFB9FBF0F00A21A3
:102AA000B0FBF1F201FB1208BAF1000F16D1701E53
:102AB000A04213DDB8F1000F0ED10020AB4605EBAC
:102AC000DB71491001FB0471009088B22B46202273
:102AD0000299FFF733FF12E04FF0010A0020AB46E6
:102AE00005EBDB71491001FB0471009088B208F11D
:102AF0003001CAB22B460299FFF720FF00BF601CCD
:102B0000C4B2B442C3DB05B0BDE8F08F2DE9FF4F7E
:102B100083B0064692461F46DDE910480020029029
:102B200000254DE0781B401EC1B20A20FFF799FF37
:102B3000BAFBF0F00A21B0FBF1F201FB1209029896
:102B400050BB781EA84227DDB9F1000F22D108F052
:102B5000800078B108F00100A34604EBDB71491056
:102B600001FB0561009088B2234630220499FFF7EB
:102B7000E5FE0EE008F00100A34604EBDB7149100E
:102B800001FB0561009088B2234620220499FFF7DB
:102B9000D5FE13E00120029008F00100A34604EBEB
:102BA000DB71491001FB0561009088B209F1300129
:102BB000CAB223460499FFF7C1FE00BF681CC5B224
:102BC000BD42AFDB07B0BDE8F08F2DE9FF4F81B00C
:102BD000074690461D46DDE90E6A00241EE0281BCC
:102BE000401EC1B20A20FFF73CFFB8FBF0F00A21FB
:102BF000B0FBF1F201FB1209B34606EBDB714910A1
:102C000001FB047188B209F13001CAB23346CDF834
:102C100000A00299FFF792FE601CC4B2AC42DEDB5A
:102C200005B0BDE8F08FF8B505460E4614461BE02A
:102C3000E82D03DD002506F1100086B2B6F59C7F75
:102C400006DD0020054606464FF6FF70FEF73DF80C
:102C5000002000902278102331462846FFF76EFEB0
:102C600005F1080085B2641C20780028E0D1F8BD89
:102C70001C0000201E000020644A0008D84E0008F6
:102C800008B50121142000F08FFD01213C4800F01F
:102C9000A0FB4FF40040ADF8000048208DF8030081
:102CA0006946384800F0C4FA2020ADF800004820FA
:102CB0008DF803006946344800F0BAFA0420ADF8F4
:102CC000000048208DF8030069462F4800F0B0FA54
:102CD0000120ADF8000028208DF80300694629483E
:102CE00000F0A6FA08BD10B5044614B1012027492A
:102CF00008702648007868B32021234800F02BFB99
:102D000058B14FF400411F4800F025FB28B10121C4
:102D10001C4800F020FB01281CD10A2000F031F9EA
:102D200000201A4908702021174800F014FB08B948
:102D3000012010BD4FF40041124800F00CFB08B90F
:102D40000220F6E701210F4800F005FB012815D10C
:102D50000320EEE720210C4800F0FDFA01280DD1F8
:102D6000C103084800F0F7FA012807D101210548FE
:102D700000F0F1FA10B90120044908700020D8E7EA
:102D80000002300000080140001001402200002035
:102D90002DE9F04188B004460D4616461F46DDF881
:102DA00038800121042000F0FFFC0121480600F0DA
:102DB00008FD534800F0CEFF4FF48050ADF81C00E2
:102DC00003208DF81E0018208DF81F0007A94D481C
:102DD00000F02EFA4FF40060ADF81C0048208DF88A
:102DE0001F0007A9474800F023FA00208DF81600BD
:102DF0008DF817008DF8180001208DF819000020BB
:102E00008DF81A008DF81B008DF812808DF8134094
:102E10008DF814608DF81550ADF8107004A938487D
:102E200000F0B1FF00208DF80A008DF80B000120A2
:102E30008DF80C000020ADF80000ADF80200ADF8F0
:102E40000400ADF80600ADF8080001208DF80D0073
:102E5000684601F022F8002008B0BDE8F081F0B526
:102E600085B006460F4600241220009001900020F5
:102E70008DF808008DF809008DF80A7000BF05E094
:102E8000315D0DF10B000155601C84B2082CF7DB9D
:102E900069461B4801F0F0F80546002408E0601C74
:102EA00084B24FF6FF70844202DB012005B0F0BD12
:102EB0002946134801F078F918B140F6FF708442B2
:102EC000EDDB0020F2E730B585B0054600210C4867
:102ED00001F04AFA10B9002005B030BD6A46002161
:102EE000074801F0BEF9002404E00DF10B00005D7D
:102EF0002855641C082CF8D39DF80A00ECE7000064
:102F0000006400400008014010B56FF0040000F0BC
:102F100002FF2E4800682E49B0FBF1F02D490870E1
:102F20000846007800EB4001C1EBC0104FF6FF717E
:102F300001EAC0002849088010BD0146254A1278E0
:102F40004A434FF0E0235A6100229A611A461269FF
:102F500042F001021A6100BF4FF0E022106900F058
:102F600001021AB100F48032002AF5D04FF0E022BD
:102F7000126922F001024FF0E0231A6100229A61E7
:102F800070470146144A12884A434FF0E0235A61C1
:102F900000229A611A46126942F001021A6100BFCA
:102FA0004FF0E022106900F001021AB100F4803203
:102FB000002AF5D04FF0E022126922F001024FF012
:102FC000E0231A6100229A61704700000800002087
:102FD00000127A00240000202600002010B54FF4D3
:102FE000A06000F049FE10BD014600BF704700BF61
:102FF0004B4A128802F04002002AF9D0C2B2484B74
:103000001B1D1A80704710B586B00446012144F29A
:10301000040000F0C9FB424800F02AFC4FF40070A5
:10302000ADF8140003208DF8160018208DF8170055
:1030300005A93C4800F0FCF84FF48060ADF814009E
:1030400004208DF8170005A9364800F0F1F8252076
:103050008DF8000003208DF801008DF8020001209A
:103060008DF80300684600F00CFE01940020ADF8D6
:103070000800ADF80A00ADF80C00ADF810000C2007
:10308000ADF80E0001A9264800F035FC012240F2FF
:103090002551234800F0C7FC0121214800F0B7FC6E
:1030A00006B010BD10B540F225511D4800F0A0FD3E
:1030B00010B31B4800F01CFDC4B21B48008800F48C
:1030C0000040C8B91848008800F4804060B10A2C5C
:1030D00003D000201449088020E01348008840F401
:1030E00000401149088019E00D2C06D10E480088D7
:1030F00040F480400C49088010E00B480088C0F381
:103100000D000A490C5408480088401C06490880F4
:1031100008460088C72801DD0020088010BD000097
:1031200000380140000801402C000020440000202D
:103130000948804709480047FEE7FEE7FEE7FEE74B
:10314000FEE7FEE7FEE7FEE7FEE7FEE70448054987
:10315000054A064B704700002B06000831010008A5
:103160007001002070070020700300207003002011
:1031700010B50446CC48844208D10121042000F057
:103180002DFB0021042000F029FB46E0C7488442C3
:1031900008D10121082000F021FB0021082000F0C7
:1031A0001DFB3AE0C248844208D10121102000F002
:1031B00015FB0021102000F011FB2EE0BD488442D9
:1031C00008D10121202000F009FB0021202000F07F
:1031D00005FB22E0B848844208D10121402000F0DC
:1031E000FDFA0021402000F0F9FA16E0B3488442CD
:1031F00008D10121802000F0F1FA0021802000F0A8
:10320000EDFA0AE0AE48844207D10121801500F0B2
:10321000E5FA0021A01500F0E1FA10BD10B501217A
:10322000084600F0DBFA0021012000F0D7FA10BDBB
:103230002DE9F0410246002500260020002300244D
:10324000002791F803C00CF00F0591F803C00CF0B3
:10325000100CBCF1000F03D091F802C04CEA050538
:1032600091F800C0BCF1000F31D0146800202BE0B1
:103270004FF0010C0CFA00F3B1F800C00CEA0306A1
:103280009E4220D183004FF00F0C0CFA03F7BC4391
:1032900005FA03FC4CEA040491F803C0BCF1280FC2
:1032A00006D14FF0010C0CFA00FCC2F814C00AE081
:1032B00091F803C0BCF1480F05D14FF0010C0CFA96
:1032C00000FCC2F810C0401C0828D1D31460B1F82B
:1032D00000C0BCF1FF0F34DD546800202EE000F187
:1032E000080C4FF0010808FA0CF3B1F800C00CEA22
:1032F00003069E4221D183004FF00F0C0CFA03F716
:10330000BC4305FA03FC4CEA040491F803C0BCF189
:10331000280F05D100F1080C08FA0CF8C2F8148047
:1033200091F803C0BCF1480F07D100F1080C4FF031
:10333000010808FA0CF8C2F81080401C0828CED307
:103340005460BDE8F0814FF6FF7101800221817069
:103350000421C17070470246002093680B400BB1F6
:10336000012000E0002070470146886880B2704765
:1033700002460020D3680B400BB1012000E0002082
:1033800070470146C86880B270470161704741616B
:1033900070470AB1016100E041617047C160704748
:1033A0004FF480320A43826181618261826982695D
:1033B000704702460020434B18684FF68073184050
:1033C00040EA021008433F4B186070473E49C8610D
:1033D0007047F0B50A46002300240021002500F0C4
:1033E0000046B6F1004F02D1364EF16901E0354E8C
:1033F0007168C0F3034583B200F44016B6F5401F70
:1034000008D121F070612F4E766826F070662D4F3E
:103410007E6012E000F48016B6F5801F06D1032608
:1034200006FA05F4A14341F0706106E0460D36014D
:1034300003FA06F6B14341F0706122B1460D360140
:1034400003FA06F6314300F00046B6F1004F02D110
:103450001C4EF16101E01B4E7160F0BD30B50022E1
:103460008B071C0F0F2303FA04F2164B08338C1042
:1034700053F824309343134C08348D1044F825300E
:1034800023468C1053F824308C07240F00FA04F4E0
:1034900023430C4C08348D1044F8253030BD0A49C4
:1034A000DC3108607047000000080140000C01405A
:1034B000001001400014014000180140001C0140B0
:1034C000002001400000014000002042DF48006869
:1034D00040F00100DD49086008464068DC490840CA
:1034E000DA49486008460068DA490840D749086068
:1034F0000846006820F4802008600846406820F4F0
:10350000FE0048604FF41F0088607047CF4909688B
:1035100021F48031CD4A11601146096821F48021DF
:103520001160B0F5803F03D0B0F5802F0ED106E0DA
:10353000C649096841F48031C44A116007E0C349B3
:10354000096841F4A021C14A116000E000BF00BF3A
:10355000704710B501460022002300204A11012ABD
:1035600002D1BA4C236806E0022A02D1B74C236A82
:1035700001E0B64C636A01F01F02012494401C4034
:103580000CB1012000E0002010BD38B500200090F3
:103590000024002500BF3120FFF7DBFF054600981F
:1035A000401C00900098B0F5A06F01D0002DF2D023
:1035B0003120FFF7CEFF08B1012400E000242046AF
:1035C00038BD01460020A14A106820F0F80040EA0A
:1035D000C10010607047A049086070470246002093
:1035E0009A4B586820F47C1042EA01031843974B29
:1035F0005860704798490866704701460020934A12
:10360000506820F003000843506070478F484068BE
:1036100000F00C007047014600208C4A506820F0F2
:10362000F00008435060704701460020874A506808
:1036300020F4E06008435060704701460020834A50
:10364000506820F4605040EAC1005060704729B1D2
:103650007E4A527A02437D4B5A7204E07B4A527A88
:1036600082437A4B5A7270477B49D8310860704761
:1036700001460020754A506820F4404008435060DD
:1036800070470021714A20321170704A82F8201070
:10369000012802D004280AD104E001216B4A20321B
:1036A000117005E00521694A2032117000E000BF69
:1036B00000BF70476949086070476449096A01435F
:1036C000624A11627047654944390860704730B5F5
:1036D00000210022002400235C4D6D6805F00C01E0
:1036E00021B1042905D0082923D105E05C4D0560EE
:1036F00022E05B4D05601FE0544D6D6805F47012CB
:10370000524D6D6805F48034022505EB92421CB9D8
:10371000544D554305600BE04C4D6D6805F4003584
:103720001DB1504D5543056002E04D4D55430560B8
:1037300002E04B4D056000BF00BF444D6D6805F0D1
:10374000F0010909484D6B5C0568DD4045603F4D5F
:103750006D6805F4E061090A434D6B5C4568DD4026
:1037600085603A4D6D6805F46051C90A3E4D6B5C49
:103770004568DD40C560354D6D6805F44041890BF5
:103780003A4D6B5CC568B5FBF3F5056130BD29B1F9
:103790002E4A526902432D4B5A6104E02B4A52696A
:1037A00082432A4B5A61704729B1284A92690243E1
:1037B000264B9A6104E0254A92698243234B9A6121
:1037C000704729B1214AD2690243204BDA6104E0F3
:1037D0001E4AD26982431D4BDA61704729B11B4AE8
:1037E000D2680243194BDA6004E0184AD268824377
:1037F000164BDA60704729B1144A12690243134B21
:103800001A6104E0114A12698243104B1A61704731
:1038100012494039086070470F49C86470470B4926
:10382000C87170470948406A40F080700749486293
:10383000704701460020054A92680A400AB10120FB
:1038400000E0002070470149887270470010024074
:103850000000FFF8FFFFF6FE0000424280044242F3
:1038600000127A0000093D002E0000203E000020DA
:1038700010B50446FB48844209D101218803FFF7B3
:10388000ADFF00214FF48040FFF7A8FF32E0F6487B
:10389000844209D101214804FFF7ADFF00214FF414
:1038A0000030FFF7A8FF25E0F048844209D101214C
:1038B0008804FFF7A0FF00214FF48020FFF79BFF53
:1038C00018E0EB48844209D10121C804FFF793FFB7
:1038D00000214FF40020FFF78EFF0BE0E548844203
:1038E00008D101210805FFF786FF00214FF4801061
:1038F000FFF781FF10BD2DE9F04786B005460E4663
:103900000024A24600BFA1460027B08900B100BF35
:103910002F462C8A4CF6FF700440F08804432C821A
:10392000AC894EF6F3100440B088318908437189A0
:1039300008430443AC81AC8A4FF6FF400440B08991
:103940000443AC8201A8FFF7C2FEC648874202D1F9
:10395000DDF810A001E0DDF80CA0A88900F400401B
:1039600040B10AEBCA0000EB0A1031684900B0FB15
:10397000F1F807E00AEBCA0000EB0A103168890091
:10398000B0FBF1F86420B8FBF0F0040120096421D9
:1039900001FB1089A88900F4004040B1322000EBFF
:1039A000C900B0FBF1F000F00700044308E032204A
:1039B00000EB09106421B0FBF1F000F00F000443AC
:1039C0002C8106B0BDE8F0874FF41651016000214C
:1039D0008180C18001810C2141810021818170475A
:1039E00010B502460020108A4FF2FF0318400B88E2
:1039F0004C8823438C882343CC882343184310826C
:103A000010BD0021018041808180C180704721B1BB
:103A1000828942F40052828104E082894DF6FF736C
:103A20001A4082817047F0B5034600240026002525
:103A3000002040F66A17B94200D100BF1846C1F312
:103A4000421401F01F06012707FA06F5012C01D1E7
:103A50000C3004E0022C01D1103000E014301AB117
:103A600007682F43076002E00768AF430760F0BDB7
:103A70001AB1838A0B43838202E0838A8B43838259
:103A80007047028A4FF6F0731A400282028A0A4394
:103A90000282704782894FF2FF731A4082818289C5
:103AA0000A438281704721B1828942F002028281F9
:103AB00004E082894FF6FD731A4082817047028AC2
:103AC0004FF6DF731A400282028A0A43028270476D
:103AD00021B1028A42F48042028204E0028A4BF65B
:103AE000FF731A4002827047C1F308028280704758
:103AF00001468888C0F308007047818941F00101C0
:103B000081817047028BD2B20283028B42EA01228A
:103B100002837047028B02F47F420283028B0A43C6
:103B20000283704721B1828A42F02002828204E03F
:103B3000828A4FF6DF731A408282704721B1828AEF
:103B400042F01002828204E0828A4FF6EF731A403C
:103B50008282704721B1828A42F00802828204E0A8
:103B6000828A4FF6F7731A408282704721B18289A8
:103B700042F40042828103E08289C2F30E02828114
:103B8000704721B1828A42F40062828204E0828A14
:103B90004FF2FF731A4082827047828A4FF6FB739E
:103BA0001A408282828A0A438282704721B1828AC5
:103BB00042F00202828204E0828A4FF6FD731A40CC
:103BC0008282704702460020B1F5007F00D100BF1D
:103BD00013880B400BB1012000E00020704701F476
:103BE0000072B2F5007F00D100BFCA430280704767
:103BF00070B50246002400230025002040F66A1616
:103C0000B14200D100BFC1F3421501F01F030126EC
:103C100006FA03F3012D02D19689334006E0022D06
:103C200002D1168A334001E0968A33400C120126F5
:103C300006FA04F41688344013B10CB1012000E0F8
:103C4000002070BD10B50022002340F66A14A14286
:103C500000D100BF0A1201249440A3B2DC430480C7
:103C600010BD000000380140004400400048004002
:103C7000004C00400050004031490143314A11607E
:103C8000704770B5002100230F22C47804B32D4C77
:103C9000246804F4E064C4F5E064210AC1F104037B
:103CA000CA40447804FA03F184781440214309019E
:103CB000254C0678A155047804F01F050124AC407A
:103CC00005786D11AD0005F1E025C5F8004109E06A
:103CD000047804F01F050124AC401C4D06787611D1
:103CE00045F8264070BD1A4A0A400243154B1B1F77
:103CF0001A60704739B1134A121D12680243114B02
:103D00001B1D1A6006E00F4A121D126882430D4BFC
:103D10001B1D1A607047042808D14FF0E021096983
:103D200041F004014FF0E022116107E04FF0E02183
:103D3000096921F004014FF0E02211617047000091
:103D40000000FA050CED00E000E400E080E100E096
:103D500080FFFF1F10B50446FE48844209D10121AF
:103D60004806FFF748FD00214FF00070FFF743FDC4
:103D700008E001218806FFF73EFD00214FF080603A
:103D8000FFF739FD10BD30B502460020002314684E
:103D900024F002041460146844F00104146000E08C
:103DA0005B1C546804F001041CB94FF6FF74A34275
:103DB000F6D1546804F001040CB900206CE08C7951
:103DC000012C04D1146844F08004146003E01468EA
:103DD00024F080041460CC79012C04D1146844F0E0
:103DE0004004146003E0146824F0400414600C7A6A
:103DF000012C04D1146844F02004146003E014681A
:103E000024F0200414604C7A012C04D1146844F08E
:103E10001004146003E0146824F0100414608C7A19
:103E2000012C04D1146844F00804146003E0146801
:103E300024F008041460CC7A012C04D1146844F0F6
:103E40000404146003E0146824F0040414608C7803
:103E5000A407CD7844EA05640D7944EA05444D7918
:103E600044EA05540D886D1E2C43D461146824F077
:103E700001041460002300E05B1C546804F001049A
:103E80001CB14FF6FF74A342F6D1546804F001044C
:103E90000CB1002000E0012030BD10B50021837A74
:103EA000012202FA03F1AC4A126842F00102AA4B65
:103EB0001A60A94A1C3212688A43A74B1C331A6045
:103EC000027BCAB9A44A0C3212688A43A24B0C3353
:103ED0001A604288C38842EA03439F4A4032847A88
:103EE00042F834300288838842EA03439A4A4032D7
:103EF000847A02EBC4025360027B012A19D1964AEC
:103F00000C3212680A43944B0C331A6042880388BF
:103F100042EA0343904A4032847A42F83430C288FD
:103F2000838842EA03438C4A4032847A02EBC4021B
:103F30005360C27A3AB9884A121D12688A43864B86
:103F40001B1D1A6006E0844A121D12680A43824B48
:103F50001B1D1A60028932B97F4A143212688A43E3
:103F60007D4B14331A600289012A06D17A4A143231
:103F700012680A43784B14331A60427B012A06D137
:103F8000754A1C3212680A43734B1C331A60724A1A
:103F9000126822F00102704B1A6010BD002181717D
:103FA000C171017241728172C1728170C17003214D
:103FB0000171022141710121018070476649096840
:103FC00041F00101644A11601146096843F60E721E
:103FD0009143614A11601146096841EA002111606C
:103FE0001146096821F001011160704721B1026892
:103FF00042F48032026003E0026822F48032026000
:104000007047E1B1026842F0800202604FF4C27270
:10401000125842F480734FF4C27213504FF4CA72B4
:10402000125842F480734FF4CA7213504FF4D27294
:10403000125842F480734FF4D27213501BE002689E
:1040400022F0800202604FF4C272125822F4807390
:104050004FF4C27213504FF4CA72125822F4807394
:104060004FF4CA7213504FF4D272125822F4807374
:104070004FF4D2721350704710B502460020936877
:1040800003F08063B3F1806F00D110E0936803F018
:104090000063B3F1006F01D1012008E0936803F0E1
:1040A0008053B3F1805F01D1022000E00420042896
:1040B00079D002F5C07303EB00131B6803F0010411
:1040C00002F5C07303EB00131C600B7A7BB94B7ACB
:1040D0000C8843EA445302F5C07404EB00142468CE
:1040E000234302F5C07404EB0014236010E00B7A44
:1040F0004C6843EAC4034C7A234302F5C07404EBD2
:1041000000142468234302F5C07404EB00142360F8
:104110008B7A03F00F038B7202F5C07303EB00136D
:104120005B6823F00F0402F5C07303EB00135C60BF
:1041300002F5C07303EB00135B688C7A234302F52E
:10414000C07404EB001463608B7B1C064B7B44EA59
:10415000034403E000640040006600400B7B44EA37
:104160000323CC7A234302F5C07404EB0014A3604C
:104170008B7C1C064B7C44EA03440B7C44EA0323FF
:10418000CC7B234302F5C07404EB0014E36002F51A
:10419000C07303EB00131B6843F0010402F5C07306
:1041A00003EB00131C6010BD10B50246002321B1C3
:1041B000012907D002290FD109E09068F94C00EAE3
:1041C00004030BE09068F84C00EA040306E09068F2
:1041D000F64C00EA040301E0002300BF00BFF44CEA
:1041E000181BA34216D007DC83B16FF0806018441F
:1041F00070B1022818D111E0B0F5007F10D0ED4C5D
:10420000204448B1B0F5003F0ED10BE002230DE091
:1042100000230BE0002309E0002307E0012305E071
:10422000012303E0012301E0002300BF00BFD8B257
:1042300010BD21B1012907D002290FD109E0826800
:1042400042F0800282600AE0826842F400428260AA
:1042500005E0826842F40002826000E000BF00BF17
:10426000704710B500F5D87303EB01131B6803F01A
:1042700004031372137A53B900F5D87303EB0113D7
:104280001B6840F2FF7404EA5353136009E000F521
:10429000D87303EB01131B686FF0604404EAD30387
:1042A000536000F5D87303EB01131B6803F002039E
:1042B000537200F5D87303EB01135B6803F00F032F
:1042C000937200F5D87303EB01135B681B0AD37478
:1042D00000F5D87303EB01139B68D37200F5D87314
:1042E00003EB01139B681C0A147300F5D87303EBEE
:1042F00001139B681C0C547300F5D87303EB011376
:104300009B681B0E937300F5D87303EB0113DB68F6
:10431000D37300F5D87303EB0113DB681C0A147424
:1043200000F5D87303EB0113DB681C0C547400F523
:10433000D87303EB0113DB681B0E937421B9C368B8
:1043400043F02003C36003E0036943F020030361EB
:1043500010BD21B9C26842F02002C26003E00269C8
:1043600042F02002026170470246002019B9D3686A
:1043700003F0030006E0012903D1136903F00300F1
:1043800000E00020704710B502460B4600204FF6B3
:10439000FF71BBB9146824F0020444F001041460F6
:1043A00000E0491E546804F00304012C01D00029E8
:1043B000F7D1546804F00304012C01D0002032E04E
:1043C000012030E0012B13D1146824F003041460A1
:1043D00000E0491E546804F003040CB10029F8D130
:1043E000546804F003040CB100201CE001201AE022
:1043F000022B17D1146824F0010444F00204146065
:1044000000E0491E546804F00304022C01D0002986
:10441000F7D1546804F00304022C01D0002002E01C
:10442000012000E0002010BD014600200A6822F0B3
:10443000010242F002020A604A6802F00302022A04
:1044400000D10120704701464FF6FF7200200B6833
:1044500023F002030B6000E0521E4B6803F00203DE
:10446000022B01D1002AF7D14B6803F00203022B83
:1044700000D001207047014600208A6902F07000D8
:104480007047014600208A69100E704701460020DF
:104490008A69C2F3074070471AB143690B4343610D
:1044A00002E043698B434361704710B50246002028
:1044B00001F4700343B19369C1F3130423400BB1BA
:1044C00001202DE000202BE001F0807343B1536800
:1044D000C1F3130423400BB1012021E000201FE0B1
:1044E00001F0006343B19368C1F3130423400BB19F
:1044F000012015E0002013E001F0007343B1D36800
:10450000C1F3130423400BB1012009E0002007E0B0
:104510001369C1F3130423400BB1012000E0002014
:1045200010BD0022244B994202D10023836111E087
:10453000C1F3130201F000730BB1C2600AE001F095
:1045400080630BB1026105E001F000630BB1826092
:1045500000E0426070470246002002EA01030BB10E
:10456000012000E00020704770B504460D4600268B
:1045700060692840002872D0B5F5807F69D01DDCC5
:10458000082D42D006DC012D2DD0022D31D0042D76
:104590007FD134E0102D3ED0202D42D0402D78D157
:1045A00045E00000030000040003000800000310C1
:1045B000000100080001FFF77000F030B5F5004F72
:1045C00061D009DCB5F5007F4AD0B5F5806F4DD0DC
:1045D000B5F5006F5DD150E0B5F5803F2DD0B5F554
:1045E000003F56D12FE0A0685549FFF7B4FF0646BB
:1045F00051E0E0680321FFF7AEFF06464BE0E068BC
:104600000821FFF7A8FF064645E0E0681021FFF704
:10461000A2FF06463FE020690321FFF79CFF064604
:1046200039E020690821FFF796FF064633E020694C
:104630001021FFF790FF06462DE060680821FFF784
:104640008AFF064627E060681021FFF784FF0646D0
:1046500021E0A0690121FFF77EFF06461BE01BE079
:10466000A0690221FFF777FF064614E0A069042144
:10467000FFF771FF06460EE00BE0A0697021FFF71F
:104680006AFF064607E060680421FFF764FF0646FC
:1046900001E0002600BF00E00026304670BDB1F505
:1046A000007F3AD00FDC202928D006DC01291CD05D
:1046B00004291DD0082940D11DE0402921D0B1F5A1
:1046C000807F3AD126E0B1F5004F31D006DCB1F55C
:1046D000806F25D0B1F5006F2FD124E0B1F5803F78
:1046E00012D0B1F5003F28D111E0154A826025E0D3
:1046F0000822C26022E01022C2601FE0082202618C
:104700001CE01022026119E00822426016E010222B
:10471000426013E00422426010E0042242600DE097
:10472000042242600AE0002282610422426005E025
:10473000002282610422426000E000BF00BF704797
:1047400001010100704700000FB4044910B503AA2D
:10475000029800F0C3F810BC5DF814FB280000209C
:104760002DE9F0410E460446002020622046E16813
:10477000884730B3252805D0D4E901219047206A25
:10478000401CF2E7E168204600278847050018D062
:10479000A5F14100192802D820354FF400673246B0
:1047A000294620462760FBF7FDFC40B1012804D0D4
:1047B000F61D26F007060836D8E7361DD6E7284648
:1047C000DAE7206ABDE8F08170B504460D4621465F
:1047D0001068AFF300802188090502D50F4A7A449A
:1047E00002E00E4A7A440E32002104F1240305E06F
:1047F00000F00F060009965D5E54491C0028F7D1B1
:1048000020780023000704D5702D02D009B10223BF
:1048100011322046BDE8704000F006B8E60C0000FA
:1048200070477047704770472DE9F0470D4699462D
:104830009246044600F124080168880604D5E06920
:1048400021F01001216000E00120A84201DD471B9A
:1048500000E00027A1697A1902EB0900081AA0619B
:104860002078C00602D42046AFF30080002608E07E
:10487000D4E901211AF806009047206A401C761CF2
:1048800020624E45F4DB2078C0060AD52046AFF3FF
:10489000008006E0D4E9012130209047206A401CC6
:1048A0002062381EA7F10107F4DC07E0D4E90121FA
:1048B00018F805009047206A401C2062281EA5F1C8
:1048C0000105F3DC2046AFF300802078000602D516
:1048D0000220BDE8F0870120FBE70000074B70B520
:1048E0000D467B4400F011F80446284600F020F8FD
:1048F00010B14FF0FF3070BD204670BD09E7FFFFDB
:1049000001694A1C02610878704700B58FB0CDE993
:1049100001310021059105497944CDE90310114683
:104920006846FFF71DFF0FB000BD0000E5FFFFFF69
:10493000007B00F080007047754600F029F8AE4615
:1049400005006946534620F00700854618B020B59B
:10495000FEF7FCFBBDE820404FF000064FF00007DB
:104960004FF000084FF0000B21F00701AC46ACE817
:10497000C009ACE8C009ACE8C009ACE8C0098D4684
:1049800070470446AFF300802046FBF71DFC000093
:10499000004870470C01002030B504460D462E48F3
:1049A000008848F68911884208D121464E20FBF73D
:1049B00024FF29464F20FBF720FF4CE026480088C3
:1049C00049F2413188423ED12A20FBF7D7FE4FF40D
:1049D0008070224908614000486120122049086027
:1049E00080201E494861086180000861401008610C
:1049F00040004861E0B21A490860802017494861C8
:104A00000861800008612B20FBF7B8FE4FF480702E
:104A1000124908614000486128121149086080204D
:104A20000E4948610861800008614010086140003B
:104A30004861E8B20A490860802008494861086175
:104A40008000086107E021462020FBF7D6FE2946BA
:104A50002120FBF7D2FE30BD2000002000100140D5
:104A60000C0C0140000000000000000000000000ED
:104A700000000404040404040004000000140A0AF2
:104A80000000000000000000000014143F140A3F62
:104A90000A0A000000041E1505060C14150F040078
:104AA000000012150D0A142C2A1200000000040A3E
:104AB0000A1E151509360000000202010000000060
:104AC0000000000000201008080808080810200056
:104AD0000002040808080808080402000000000496
:104AE000150E0E150400000000000404041F040449
:104AF00004000000000000000000000000020201AD
:104B000000000000001F0000000000000000000086
:104B10000000000000020000001008080804040261
:104B20000202010000000E1111111111110E0000FE
:104B30000000040604040404040E000000000E112A
:104B400011080402011F000000000E11100C1010CB
:104B5000110E00000000080C0A0A091E08180000C7
:104B600000001F01010F1010110E000000000E09BF
:104B7000010F1111110E000000001F0908040404A8
:104B80000404000000000E11110E1111110E00009E
:104B900000000E1111111E10120E00000000000086
:104BA00004000000000400000000000000040000F9
:104BB0000004040000201008040204081020000073
:104BC000000000001F00001F000000000002040899
:104BD000102010080402000000000E111108040447
:104BE0000004000000000E111915151D011E000023
:104BF000000004040C0A0A1E1233000000000F1209
:104C0000120E1212120F000000001E11010101010C
:104C1000110E000000000F1212121212120F0000EB
:104C200000001F120A0E0A02121F000000001F12CD
:104C30000A0E0A020207000000001C1201013911CD
:104C4000120C000000003312121E12121233000068
:104C500000001F0404040404041F000000003E08B8
:104C60000808080808090700000037120A060A0A9F
:104C7000123700000000070202020202223F000079
:104C800000001B1B1B1B15151515000000003B1217
:104C900016161A1A1217000000000E111111111128
:104CA000110E000000000F12120E02020207000097
:104CB00000000E1111111117190E180000000F122B
:104CC000120E0A121237000000001E110106081011
:104CD000110F000000001F1504040404040E00005E
:104CE0000000331212121212120C000000003312D4
:104CF000120A0A0C0404000000001515150E0A0A19
:104D00000A0A000000001B0A0A04040A0A1B000029
:104D100000001B0A0A040404040E000000001F091E
:104D200008040402121F0000001C0404040404040C
:104D300004041C0000020202040408080810000019
:104D4000000E08080808080808080E0000040A00F9
:104D50000000000000000000000000000000000053
:104D60000000003F00040000000000000000000000
:104D700000000000000C121C123C000000000302A6
:104D8000020E1212120E000000000000001C12029F
:104D9000021C000000001810101C1212123C00002F
:104DA00000000000000C121E021C0000000038046D
:104DB000041E0404041E000000000000003C120C4D
:104DC000021E221C00000302020E12121237000003
:104DD0000000040000060404040E000000000800A7
:104DE000000C08080808080700000302023A0A0E2F
:104DF000123700000000070404040404041F00002C
:104E000000000000000F151515150000000000003F
:104E1000000F12121237000000000000000C1212E6
:104E2000120C000000000000000F1212120E020708
:104E300000000000001C1212121C103800000000BC
:104E4000001B06020207000000000000001E020C0A
:104E5000101E000000000004040E040404180000EA
:104E600000000000001B1212123C000000000000B5
:104E70000037120A0C040000000000000015150E97
:104E80000A0A000000000000001B0A040A1B0000C0
:104E9000000000000037120A0C04040300000000A8
:104EA000001E0804041E0000001808080804080872
:104EB000080818000808080808080808080808086A
:104EC0000006040404080404040406000225180073
:104ED00000000000000000000000000000000000D2
:104EE000000000000000000000000008080808089A
:104EF000080800001818000000486C241200000088
:104F000000000000000000000000002424247F12A4
:104F100012127F12121200000000081C2A2A0A0C2A
:104F20001828282A2A1C0808000000222515151513
:104F30002A585454542200000000000C1212120A85
:104F400076252911916E000000060604030000007A
:104F500000000000000000000040201010080808B9
:104F60000808081010204000000204080810101063
:104F700010101008080402000000000008086B1C54
:104F80001C6B08080000000000000000080808086A
:104F90007F08080808000000000000000000000072
:104FA00000000000060604030000000000000000EE
:104FB000FE000000000000000000000000000000F3
:104FC0000000000006060000000080404020201085
:104FD00010080804040202000000001824424242A3
:104FE0004242424224180000000000080E0808084F
:104FF00008080808083E00000000003C4242422029
:1050000020100804427E00000000003C42422018AC
:1050100020404042221C00000000002030282424B0
:1050200022227E20207800000000007E0202021A68
:1050300026404042221C0000000000382402021AD0
:1050400026424242241800000000007E2222101056
:1050500008080808080800000000003C42424224FA
:1050600018244242423C0000000000182442424200
:1050700064584040241C0000000000000000181884
:1050800000000000181800000000000000000008E8
:105090000000000000080804000000402010080480
:1050A00002040810204000000000000000007F0003
:1050B00000007F0000000000000000020408102033
:1050C00040201008040200000000003C424246401C
:1050D00020101000181800000000001C225A55551E
:1050E00055552D42221C0000000000080818141419
:1050F000243C224242E700000000001F2222221E20
:1051000022424242221F00000000007C4242010174
:1051100001010142221C00000000001F2242424205
:1051200042424242221F00000000003F4212121E73
:1051300012120242423F00000000003F4212121EC3
:1051400012120202020700000000003C22220101AC
:1051500001712122221C0000000000E7424242426D
:105160007E42424242E700000000003E0808080874
:1051700008080808083E00000000007C101010100D
:10518000101010101010110F0000007722120A0EDC
:105190000A12122222770000000000070202020217
:1051A00002020202427F00000000007736363636E7
:1051B0002A2A2A2A2A6B0000000000E346464A4AAF
:1051C00052525262624700000000001C22414141DD
:1051D00041414141221C00000000003F4242424246
:1051E0003E020202020700000000001C2241414171
:1051F00041414D53321C60000000003F4242423E9C
:105200001212222242C700000000007C4242020427
:1052100018204042423E00000000007F4908080874
:1052200008080808081C0000000000E7424242424B
:1052300042424242423C0000000000E74242222437
:1052400024141418080800000000006B494949495B
:105250005555362222220000000000E7422424187F
:105260001818242442E700000000007722221414BA
:1052700008080808081C00000000007E212010100B
:1052800008040442423F00000078080808080808A3
:10529000080808080808780000000202040408084A
:1052A0000810102020204040001E10101010101078
:1052B0001010101010101E000038440000000000F4
:1052C00000000000000000000000000000000000DE
:1052D00000000000000000FF0006080000000000C1
:1052E0000000000000000000000000000000003C82
:1052F0004278444242FC0000000000030202021A0D
:1053000026424242261A0000000000000000003839
:10531000440202024438000000000060404040782F
:105320004442424264D80000000000000000003CFB
:10533000427E0202423C0000000000F08808087E25
:1053400008080808083E0000000000000000007C7B
:1053500022221C023C42423C000000030202023AAC
:105360004642424242E700000000000C0C00000EE2
:1053700008080808083E000000000030300000382F
:10538000202020202020221E0000000302020272A2
:10539000120A1612227700000000000E0808080802
:1053A00008080808083E0000000000000000007F18
:1053B0009292929292B70000000000000000003B21
:1053C0004642424242E70000000000000000003C6C
:1053D00042424242423C0000000000000000001B2C
:1053E00026424242221E0207000000000000007810
:1053F00044424242447840E0000000000000007750
:105400004C040404041F0000000000000000007CA5
:1054100042023C40423E0000000000000008083EFE
:1054200008080808083000000000000000000063C1
:105430004242424262DC000000000000000000E73F
:10544000422424140808000000000000000000EBC3
:105450004949555522220000000000000000007656
:1054600024181818246E000000000000000000E757
:105470004224241418080807000000000000007EE1
:1054800022100808447E000000C0202020202010A8
:10549000202020202020C00010101010101010100C
:1054A000101010101010101000060808080808103E
:1054B00008080808080806000C32C20000000000B6
:1054C0000000000000000000303132333435363740
:1054D0003839414243444546403058003031323338
:1054E0003435363738396162636465664030780038
:1054F0001055000800000020440000006C01000866
:1055000054550008440000202C07000088010008C2
:10551000F40100000000000000A24A0400000000A6
:105520000000000001020304060708090000FFFF55
:10553000000001000000000000000000000000006A
:105540000000010203040102030406070809020423
:045550000608000049
:0400000508000131BD
:00000001FF
