:020000040800F2
:1000000000040020B5090008D5010008D701000848
:10001000DB010008DF010008E30100080000000028
:10002000000000000000000000000000E9010008DE
:10003000E701000800000000EB010008650200086D
:10004000ED010008EF010008F1010008F3010008CC
:10005000F5010008F7010008F9010008FB0100089C
:10006000FD010008FF01000801020008030200086A
:100070000502000807020008090200080B02000838
:100080000D0200080F020008110200081302000808
:100090001502000817020008190200081B020008D8
:1000A0001D0200081F0200082102000823020008A8
:1000B0002502000827020008290200082B02000878
:1000C0002D0200082F020008310200083302000848
:1000D0003502000837020008390200083B02000818
:1000E0003D0200083F0200084102000843020008E8
:1000F0004502000847020008490200084B020008B8
:100100004D0200084F020008510200085302000887
:100110005502000857020008590200085B02000857
:100120005D0200085F020008610200086302000827
:10013000DFF80CD000F042FC00480047C90100087D
:100140000004002010B500F08DFA4FF4803000F06C
:10015000A8FA00F0E5FA0446012C23D1002000F0B3
:1001600017FB002000F026FBA00200F01AFB002085
:1001700000F0C6F9102000F0CEF90021200400F0B4
:10018000EAFA012000F0F3FA00BF392000F0ACFADF
:100190000028FAD0022000F0EDFA00BF00F0F3FAD8
:1001A0000828FBD110BD10B500214FF0006000F011
:1001B0004FFA10BD10B5FFF7C5FFFFF7F4FF00F0D1
:1001C0009BF800F0C9F810BDFFF7F4FF01E000F064
:1001D00059F9FCE7704700BFFEE700BFFEE700BF2C
:1001E000FEE700BFFEE770477047704770477047F3
:1001F0007047704770477047704770477047704747
:100200007047704770477047704770477047704736
:100210007047704770477047704770477047704726
:100220007047704770477047704770477047704716
:100230007047704770477047704770477047704706
:1002400070477047704770477047704770477047F6
:1002500070477047704770477047704770477047E6
:10026000704770477047000070B505460C46032D77
:1002700000DD002525B1012D0FD0022D27D119E079
:100280002CB14FF48041274800F0DFF904E04FF42F
:100290008041244800F0D7F91AE02CB14FF4805186
:1002A000204800F0D2F904E04FF480511D4800F0DE
:1002B000CAF90DE02CB14FF400511A4800F0C5F90D
:1002C00004E04FF40051174800F0BDF900E000BF12
:1002D00000BF70BD10B500210846FFF7C5FF002123
:1002E0000120FFF7C1FF00210220FFF7BDFF002121
:1002F0000320FFF7B9FF10BD08B50121082000F069
:10030000C3FA4FF47040ADF8000001208DF80200F0
:1003100010208DF803006946024800F009F9FFF744
:10032000D9FF08BD000C0140002106E0002101E0DA
:100330004A1CD1B20229FBDB401E0028F6D17047CF
:1003400000B5034604E04FF47A70FFF7EDFF5B1E43
:10035000002BF8D100BD000000B585B00121880454
:1003600000F09FFA0121082000F08EFA01211020F0
:1003700000F08AFA3020ADF8100001208DF812004C
:1003800010208DF8130004A95A4800F0D1F84FF45A
:100390008060ADF8100003208DF8120018208DF851
:1003A000130004A9544800F0C3F84FF40060ADF8FE
:1003B000100004208DF8130004A94F4800F0B8F88D
:1003C0004FF4165000900020ADF80400ADF8060080
:1003D000ADF80800ADF80C000C20ADF80A00694635
:1003E000464800F07BFA0121444800F0C2FA05B00B
:1003F00000BD10B5044610213E4800F024F920212C
:100400003C4800F020F90120FFF79AFF21463B48C5
:1004100000F0BBFA00BF8021384800F0BFFA002886
:10042000F9D00120FFF78CFF1021324800F00DF9C0
:100430002021304800F009F910BD10B50446102104
:100440002C4800F002F920212A4800F0FEF8012093
:10045000FFF776FF2021294800F0A0FA08B9002014
:1004600010BD264800F095FA20700120FFF768FFC4
:100470001021204800F0E7F820211E4800F0E3F8A2
:100480000120EDE708B50020009000BF31E02BE02F
:100490009DF80000FFF7ADFF9DF80000012803D193
:1004A00001210020FFF7E0FE9DF80000022803D1A3
:1004B00001210846FFF7D8FE9DF80000032803D16C
:1004C00001210220FFF7D0FE9DF8000004280BD187
:1004D00000210846FFF7C8FE00210120FFF7C4FEF7
:1004E00000210220FFF7C0FE6846FFF7A6FF0028A4
:1004F000CED1CCE700100140000C01400048004084
:100500000A49096801F03801084A11601146096872
:100510000143116070470549096821F01001034A41
:1005200011601146096801431160704700200240C4
:100530002DE9F0410246002500260020002300247A
:10054000002791F803C00CF00F0591F803C00CF0E0
:10055000100CBCF1000F03D091F802C04CEA050565
:1005600091F800C0BCF1000F31D0146800202BE0DE
:100570004FF0010C0CFA00F3B1F800C00CEA0306CE
:100580009E4220D183004FF00F0C0CFA03F7BC43BE
:1005900005FA03FC4CEA040491F803C0BCF1280FEF
:1005A00006D14FF0010C0CFA00FCC2F814C00AE0AE
:1005B00091F803C0BCF1480F05D14FF0010C0CFAC3
:1005C00000FCC2F810C0401C0828D1D31460B1F858
:1005D00000C0BCF1FF0F34DD546800202EE000F1B4
:1005E000080C4FF0010808FA0CF3B1F800C00CEA4F
:1005F00003069E4221D183004FF00F0C0CFA03F743
:10060000BC4305FA03FC4CEA040491F803C0BCF1B6
:10061000280F05D100F1080C08FA0CF8C2F8148074
:1006200091F803C0BCF1480F07D100F1080C4FF05E
:10063000010808FA0CF8C2F81080401C0828CED334
:100640005460BDE8F081016170474161704700006E
:10065000024A0A400243024B1A60704780FFFF1FA4
:1006600008ED00E09548006840F0010093490860FB
:10067000084640689249084090494860084600682A
:10068000904908408D4908600846006820F48020A1
:1006900008600846406820F4FE004860002088603A
:1006A00070478649096821F48031844A11601146F7
:1006B000096821F480211160B0F5803F03D0B0F5C6
:1006C000802F0ED106E07D49096841F480317B4AD4
:1006D000116007E07949096841F4A021774A116067
:1006E00000E000BF00BF704710B5014600220023A4
:1006F00000204A11012A02D1704C236806E0022A28
:1007000002D16E4C236A01E06C4C636A01F01F0257
:10071000012494401C400CB1012000E0002010BDD9
:1007200038B5002000900024002500BF3120FFF7DD
:10073000DBFF05460098401C00901DB90098B0F5FD
:10074000A06FF3D13120FFF7CFFF08B1012400E003
:100750000024204638BD02460020584B586820F43B
:100760007C1042EA01031843544B586070475649C5
:100770000866704701460020504A506820F0030088
:100780000843506070474D48406800F00C007047C7
:1007900001460020494A506820F0F00008435060AC
:1007A000704701460020454A506820F4E060084345
:1007B0005060704701460020404A506820F4605065
:1007C00040EAC1005060704730B50021002200248B
:1007D00000233A4D6D6805F00C0121B1042905D0C4
:1007E000082923D105E0394D056022E0374D056029
:1007F0001FE0324D6D6805F47012022505EB924240
:100800002E4D6D6805F480341CB9314D554305609B
:100810000BE02A4D6D6805F400351DB12C4D554394
:10082000056002E0294D5543056002E0274D056053
:1008300000BF00BF214D6D6805F0F0010909254D8D
:100840006B5C0568DD4045601C4D6D6805F4E0613A
:10085000090A204D6B5C4568DD408560174D6D6869
:1008600005F46051C90A1B4D6B5C4568DD40C560ED
:10087000124D6D6805F44041890B174D6B5CC568DE
:10088000B5FBF3F5056130BD29B10C4A926902430D
:100890000A4B9A6104E0094A92698243074B9A61C4
:1008A000704729B1054AD2690243044BDA6104E07A
:1008B000024AD2698243014BDA617047001002405C
:1008C0000000FFF8FFFFF6FE0000424200127A002F
:1008D00000093D00FE0900080E0A00082DE9F04756
:1008E00086B005460E460024A24600BF00BF002782
:1008F0002F462C8A4CF6FF700440F08804432C826B
:10090000AC894EF6F3100440B088318908437189F0
:1009100008430443AC81AC8A4FF6FF400440B089E1
:100920000443AC8201A8FFF74FFF2148874202D160
:10093000DDF810A001E0DDF80CA00AEBCA0000EB26
:100940000A1031688900B0FBF1F86420B8FBF0F0C0
:1009500004012009642101FB1089322000EB0910F9
:10096000B0FBF1F000F00F0004432C8106B0BDE8AD
:10097000F08721B1828942F40052828104E08289A9
:100980004DF6FF731A4082817047C1F308028280DE
:10099000704701468888C0F308007047024600206F
:1009A00013880B400BB1012000E0002070470000CD
:1009B000003801400048004731010008064C074D4F
:1009C00006E0E06840F0010394E80700984710341F
:1009D000AC42F6D3FFF7B0FB140A0008240A000863
:1009E00002E008C8121F08C1002AFAD170477047F8
:1009F000002001E001C1121F002AFBD17047000056
:100A000000000102030401020304060708090204AE
:100A100006080000240A000800000020000400006E
:040A2000F0090008D1
:0400000508000131BD
:00000001FF
