:020000040800F2
:1000000008BA0020190D0008B1020008B302000868
:10001000B7020008BB020008BF0200080000000091
:10002000000000000000000000000000C302000803
:10003000C502000800000000C7020008C90200084D
:10004000330D0008330D0008330D0008330D000890
:10005000330D0008330D0008330D0008330D000880
:10006000330D0008330D0008330D0008330D000870
:10007000330D0008330D0008330D0008330D000860
:10008000330D0008330D0008330D0008330D000850
:10009000330D0008330D0008330D0008330D000840
:1000A000330D0008330D0008330D0008330D000830
:1000B000330D0008330D0008330D0008330D000820
:1000C000330D0008330D0008330D0008330D000810
:1000D000330D00088F0C0008330D0008330D0008A5
:1000E000330D0008330D0008330D0008330D0008F0
:1000F000330D0008330D0008330D0008330D0008E0
:10010000330D0008330D0008330D0008330D0008CF
:10011000330D0008330D0008330D0008330D0008BF
:10012000330D0008330D0008330D0008330D0008AF
:1001300000F002F800F03FF80AA090E8000C8244BA
:100140008344AAF10107DA4501D100F034F8AFF297
:10015000090EBAE80F0013F0010F18BFFB1A43F0A5
:1001600001031847001F0000201F0000103A24BFA1
:1001700078C878C1FAD8520724BF30C830C144BF0C
:1001800004680C607047000000230024002500264E
:10019000103A28BF78C1FBD8520728BF30C148BFEA
:1001A0000B607047782901F06186002070471FB509
:1001B0001FBD10B510BD01F011FF1146FFF7F7FF8D
:1001C00000F02AF801F02FFF03B4FFF7F2FF03BCA1
:1001D00000F002FD70B505464FF4007001F0DAFD45
:1001E000064601222946304600F0EAFB80B925A0E8
:1001F00001F0FCFD002405E0315D27A001F0F6FDD3
:10020000601C84B2B4F5007FF6DB24A001F0EEFDA3
:10021000304601F0B3FD70BD00244FF4A06001F042
:100220001FFB00F06FFC4FF4165000F0E4FC00F0F0
:1002300047FC01F020FD07E01C48006808B90120D8
:1002400000E000201949086000F0F3FA0028F3D11B
:100250001649091D086014E00020FFF7BBFF601C71
:10026000C4B20A2000F08BFC142C0AD10F48001DE8
:10027000006808B9012000E000200C49091D086051
:100280000024E9E7534543544F5220302044415461
:10029000413A0D0A00000000257820000D0A444173
:1002A000544120454E4445440D0A0000A00122421D
:1002B000704700BFFEE700BFFEE700BFFEE700BFDC
:1002C000FEE7704770477047704700000CB500208C
:1002D000019000906C48006840F480306A490860E2
:1002E00000BF6948006800F4003000900198401C8D
:1002F0000190009818B90198B0F5A06FF1D162484B
:10030000006800F4003010B10120009001E00020EE
:1003100000900098012843D15C48006840F010002C
:100320005A4908600846006820F003000860084643
:10033000006840F002000860534840685249486035
:100340000846406848600846406840F4806048605D
:100350000846406820F47C1048600846406840F435
:10036000E81048600846006840F08070086000BFF0
:100370004548006800F000700028F9D04248406805
:1003800020F00300404948600846406840F0020001
:10039000486000BF3C48406800F00C000828F9D1D4
:1003A0000CBD10B5FFF792FF10BD10B536480068C0
:1003B00040F001003449086008464068344908406C
:1003C0003149486008460068324908402E490860B3
:1003D0000846006820F4802008600846406820F441
:1003E000FE0048604FF41F008860FFF7DAFF4FF00F
:1003F00000602949086010BD10B5002100200022CE
:10040000214B5B6803F00C0121B1042906D00829B7
:1004100028D107E0214B224C236027E01F4B204CC2
:10042000236023E0184B5B6803F47010164B5B6885
:1004300003F48032022303EB904022B9194B43436B
:10044000174C23600DE0104B5B6803F4003323B1BD
:10045000144B4343124C236003E0104B4343104CB6
:10046000236003E00D4B0E4C236000BF00BF064B22
:100470005B68C3F303130C4CE15C094B1B68CB4076
:10048000074C236010BD0000001002400020024015
:100490000000FFF8FFFFF6FE08ED00E000127A0012
:1004A0000000002000093D000400002070B5054652
:1004B000002405E0601CC4B2C82C01DD002070BD22
:1004C0000221324801F089FB0028F3D029462F4849
:1004D00001F030FB002405E0601CC4B2C82C01DD33
:1004E0000020ECE70121294801F077FB0028F3D038
:1004F000264801F021FBC0B2E1E708B50121082040
:1005000000F046FF0121880300F04FFF4FF46040E8
:10051000ADF8000018208DF8030003208DF80200CC
:1005200069461B4800F078FC4FF46041184800F021
:1005300020FD0020174908804FF482704880002079
:1005400088800220C880012008814002488138202C
:1005500088810020C881072008820C4801F014FA25
:1005600001210A4801F0B5FAFF20FFF79FFF08BDFF
:1005700010B50446074884810146044801F004FA96
:100580000121024801F0A5FA10BD0000003800402A
:10059000000C01404C00002010B504462046FFF737
:1005A00085FF10BD10B53820FFF7E2FF10BD10B574
:1005B0000020FFF7DDFF10BD08B50121082000F085
:1005C000E7FE4FF48050ADF8000010208DF80300D6
:1005D00003208DF802006946F64800F01DFC4FF438
:1005E0008051F44800F0C5FCFFF787FF0120F24975
:1005F000086008BD10B50120EF490860FF20FFF733
:10060000CBFF10BD10B5002400BFFF20FFF7C4FFD3
:10061000FF2801D1002010BD641C6FF07F40844290
:10062000F3D30120F7E710B50020E3490860FFF796
:10063000E9FF08B9002010BDFFF7DCFF0120FAE751
:1006400070B505464FF6FF7401E0601E84B2FF20CE
:10065000FFF7A2FFA84201D0002CF6D10CB9FF2071
:1006600070BD0020FCE770B504460D46FE20FFF784
:10067000E7FF08B1012070BD04E0FF20FFF716FF7F
:100680002070641C2800A5F101018DB2F5D1FF2076
:10069000FFF782FFFF20FFF77FFF0020EBE770B539
:1006A00006460D46FFF7AEFF08B1012070BD284693
:1006B000FFF772FFFD2D19D0002404E0305DFFF735
:1006C000F5FE601C84B2B4F5007FF7DBFF20FFF776
:1006D00063FFFF20FFF760FFFF20FFF75DFF044689
:1006E00004F01F00052801D00220DFE70020DDE72D
:1006F0002DE9F04105460C4617464FF00008FFF77C
:1007000079FFFFF790FF10B1FF20BDE8F08145F0C1
:100710004000FFF741FF200EFFF73EFFC4F3074004
:10072000FFF73AFFC4F30720FFF736FFE0B2FFF709
:1007300033FF3846FFF730FF0C2D02D1FF20FFF7C3
:100740002BFF4FF01F0800BFFF20FFF725FF0646D5
:1007500006F0800030B15FEA0800A8F1010101F065
:10076000FF08F1D13046D0E770B5054601220021DF
:100770000A20FFF7BDFF044624B910212846FFF7E1
:1007800072FF0446FFF736FF0CB1012070BD002058
:10079000FCE770B50546012200210920FFF7A8FFFC
:1007A000044624B910212846FFF75DFF0446FFF7F1
:1007B00021FF0CB1012070BD0020FCE77FB5684629
:1007C000FFF7E7FF10B1002004B070BD9DF80000F6
:1007D00000F0C000402809D19DF809009DF80810DC
:1007E00000EB0120401C84B2A50220E09DF805002A
:1007F00000F00F009DF80A1000EBD1109DF80910D1
:1008000001F0030100EB4100861C9DF808008011F7
:100810009DF8071000EB81009DF8061001F0030120
:1008200000EB8120441CA6F1090004FA00F52846DB
:10083000CAE7F8B5FFF7C0FEFFF7B4FE002504E0F5
:10084000FF20FFF7A9FE681C85B20A2DF8DB1426ED
:1008500000BF952200210846FFF74AFF0446012CFD
:1008600004D03000A6F101018EB2F2D1002053492C
:100870000870012C4AD187224FF4D5710820FFF768
:1008800037FF012847D1002506E0FF20FFF784FE4F
:100890000DF80500681C85B2042DF6DB9DF80200FA
:1008A000012879D19DF80300AA2875D14FF6FE766C
:1008B00000BF012200213720FFF71AFF0122910714
:1008C0002920FFF715FF044624B13000A6F10101ED
:1008D0008EB2EED1002E5FD0012200213A20FFF728
:1008E00007FF002858D1002506E0FF20FFF754FE3F
:1008F0000DF80500681C85B2042DF6DB9DF800009C
:1009000000F0400018B106202C49087044E0042093
:100910002A49087040E0012200213720FFF7E8FE55
:10092000012200212920FFF7E3FE0446012C17DCF9
:100930000220224908704FF6FE7600BF01220021F6
:100940003720FFF7D5FE012200212920FFF7D0FE36
:100950000446BCB13000A6F101018EB2EED111E027
:100960000120164908704FF6FE7600BF01220021D3
:100970001046FFF7BDFE044624B13000A6F1010188
:100980008EB2F3D12EB1012251021020FFF7B0FE3A
:1009900010B1002009490870FFF72CFEFFF707FE91
:1009A0000648007808B10020F8BD0CB12046FBE7EE
:1009B000AA20F9E7000C0140B08121421400002078
:1009C0002DE9F04106460F4615463C4800780628BA
:1009D00000D07F02012D0CD1012239461120FFF7F2
:1009E00087FE0446FCB969023046FFF73CFE044628
:1009F00019E0012239461220FFF77AFE044600BFB3
:100A00004FF400713046FFF72EFE044606F50076DF
:100A1000681EC0B2050001D0002CF1D001220021D7
:100A20000C20FFF765FEFFF7E5FD2046BDE8F081ED
:100A30002DE9F04106460F46154620480078062865
:100A400000D07F02012D0CD1012239461820FFF77A
:100A50004FFE04466CBBFE213046FFF720FE0446E5
:100A600027E016480078012809D00122002137200C
:100A7000FFF73EFE012229461720FFF739FE01222B
:100A800039461920FFF734FE044694B900BFFC2113
:100A90003046FFF704FE044606F50076681EC0B235
:100AA000050001D0002CF2D0FD210020FFF7F7FD5A
:100AB0000446FFF79FFD2046BDE8F08114000020AA
:100AC00008B50121102000F063FC10208DF8030010
:100AD0000001ADF8000003208DF8020069460848C7
:100AE00000F09AF910208DF803004001ADF80000E5
:100AF00003208DF802006946014800F08DF908BD19
:100B00000010014010B56FF0040000F0F8FE2E4810
:100B100000682E49B0FBF1F02D49087008460078B6
:100B200000EB4001C1EBC0104FF6FF7101EAC000BD
:100B30002849088010BD0146254A12784A434FF0E3
:100B4000E0235A6100229A611A46126942F00102BA
:100B50001A6100BF4FF0E022106900F001021AB1E3
:100B600000F48032002AF5D04FF0E022126922F022
:100B700001024FF0E0231A6100229A61704701469A
:100B8000144A12884A434FF0E0235A6100229A61C6
:100B90001A46126942F001021A6100BF4FF0E022CA
:100BA000106900F001021AB100F48032002AF5D079
:100BB0004FF0E022126922F001024FF0E0231A61A7
:100BC00000229A61704700000000002000127A00A5
:100BD0001600002018000020014600BF704700BF2B
:100BE000494A128802F04002002AF9D0C2B2464BAC
:100BF0001B1D1A80704710B586B00446012144F2CF
:100C0000040000F0C5FB4FF40070ADF814000320A1
:100C10008DF8160018208DF8170005A93B4800F044
:100C2000FBF84FF48060ADF8140004208DF8170035
:100C300005A9364800F0F0F825208DF800000320C3
:100C40008DF801008DF8020001208DF80300684640
:100C500000F00BFE01940020ADF80800ADF80A008A
:100C6000ADF80C00ADF810000C20ADF80E0001A995
:100C7000254800F034FC012240F22551224800F0C2
:100C8000C6FC0121204800F0B6FC06B010BD10B52E
:100C900040F225511C4800F09FFD10B31A4800F0A7
:100CA0001BFDC4B21A48008800F40040C8B91848B7
:100CB000008800F4804060B10A2C03D00020144961
:100CC000088020E01248008840F400401049088065
:100CD00019E00D2C06D10E48008840F480400C49E4
:100CE000088010E00A480088C0F30D0009490C5440
:100CF00007480088401C0649088008460088C72825
:100D000001DD0020088010BD0038014000080140CE
:100D1000200000205E000020094880470948004765
:100D2000FEE7FEE7FEE7FEE7FEE7FEE7FEE7FEE79B
:100D3000FEE7FEE704480549054A064B70470000F8
:100D4000AB0300083101000808B4002008BA0020F5
:100D500008B6002008B6002010B50446CC488442EE
:100D600008D10121042000F02DFB0021042000F017
:100D700029FB46E0C748844208D10121082000F041
:100D800021FB0021082000F01DFB3AE0C24884420C
:100D900008D10121102000F015FB0021102000F0E7
:100DA00011FB2EE0BD48844208D10121202000F033
:100DB00009FB0021202000F005FB22E0B848844216
:100DC00008D10121402000F0FDFA0021402000F070
:100DD000F9FA16E0B348844208D10121802000F0DE
:100DE000F1FA0021802000F0EDFA0AE0AE488442DA
:100DF00007D10121801500F0E5FA0021A01500F0CF
:100E0000E1FA10BD10B50121084600F0DBFA00211F
:100E1000012000F0D7FA10BD2DE9F041024600256F
:100E20000026002000230024002791F803C00CF0C6
:100E30000F0591F803C00CF0100CBCF1000F03D0AB
:100E400091F802C04CEA050591F800C0BCF1000F12
:100E500031D0146800202BE04FF0010C0CFA00F3A5
:100E6000B1F800C00CEA03069E4220D183004FF087
:100E70000F0C0CFA03F7BC4305FA03FC4CEA04041C
:100E800091F803C0BCF1280F06D14FF0010C0CFA09
:100E900000FCC2F814C00AE091F803C0BCF1480F8E
:100EA00005D14FF0010C0CFA00FCC2F810C0401C38
:100EB0000828D1D31460B1F800C0BCF1FF0F34DDB5
:100EC000546800202EE000F1080C4FF0010808FAE9
:100ED0000CF3B1F800C00CEA03069E4221D1830056
:100EE0004FF00F0C0CFA03F7BC4305FA03FC4CEA75
:100EF000040491F803C0BCF1280F05D100F1080CDF
:100F000008FA0CF8C2F8148091F803C0BCF1480F3D
:100F100007D100F1080C4FF0010808FA0CF8C2F8EC
:100F20001080401C0828CED35460BDE8F0814FF6F5
:100F3000FF710180022181700421C1707047024657
:100F4000002093680B400BB1012000E000207047A7
:100F50000146886880B2704702460020D3680B4083
:100F60000BB1012000E0002070470146C86880B244
:100F7000704701617047416170470AB1016100E04B
:100F800041617047C16070474FF480320A4382610B
:100F90008161826182698269704702460020434B09
:100FA00018684FF68073184040EA021008433F4B20
:100FB000186070473E49C8617047F0B50A46002383
:100FC00000240021002500F00046B6F1004F02D1B8
:100FD000364EF16901E0354E7168C0F3034583B2C6
:100FE00000F44016B6F5401F08D121F070612F4E75
:100FF000766826F070662D4F7E6012E000F4801651
:10100000B6F5801F06D1032606FA05F4A14341F088
:10101000706106E0460D360103FA06F6B14341F071
:10102000706122B1460D360103FA06F6314300F035
:101030000046B6F1004F02D11C4EF16101E01B4E9B
:101040007160F0BD30B500228B071C0F0F2303FA2F
:1010500004F2164B08338C1053F824309343134C8E
:1010600008348D1044F8253023468C1053F8243072
:101070008C07240F00FA04F423430C4C08348D1021
:1010800044F8253030BD0A49DC3108607047000063
:1010900000080140000C0140001001400014014014
:1010A00000180140001C01400020014000000140E8
:1010B00000002042DF48006840F00100DD49086080
:1010C00008464068DC490840DA494860084600683C
:1010D000DA490840D74908600846006820F48020B3
:1010E00008600846406820F4FE0048604FF41F0086
:1010F00088607047CF49096821F48031CD4A11607A
:101100001146096821F480211160B0F5803F03D0B9
:10111000B0F5802F0ED106E0C649096841F4803150
:10112000C44A116007E0C349096841F4A021C14ADB
:10113000116000E000BF00BF704710B501460022FB
:10114000002300204A11012A02D1BA4C236806E08C
:10115000022A02D1B74C236A01E0B64C636A01F05F
:101160001F02012494401C400CB1012000E000202B
:1011700010BD38B5002000900024002500BF3120AC
:10118000FFF7DBFF05460098401C00900098B0F583
:10119000A06F01D0002DF2D03120FFF7CEFF08B1B3
:1011A000012400E00024204638BD01460020A14A69
:1011B000106820F0F80040EAC10010607047A049B4
:1011C00008607047024600209A4B586820F47C1053
:1011D00042EA01031843974B5860704798490866E4
:1011E000704701460020934A506820F003000843EE
:1011F000506070478F48406800F00C00704701460F
:1012000000208C4A506820F0F0000843506070477E
:1012100001460020874A506820F4E060084350608F
:10122000704701460020834A506820F4605040EA2D
:10123000C1005060704729B17E4A527A02437D4B0B
:101240005A7204E07B4A527A82437A4B5A72704750
:101250007B49D8310860704701460020754A5068C4
:1012600020F440400843506070470021714A20320A
:101270001170704A82F82010012802D004280AD187
:1012800004E001216B4A2032117005E00521694A12
:101290002032117000E000BF00BF7047694908604C
:1012A00070476449096A0143624A1162704765499F
:1012B00044390860704730B5002100220024002323
:1012C0005C4D6D6805F00C0121B1042905D0082999
:1012D00023D105E05C4D056022E05B4D05601FE019
:1012E000544D6D6805F47012524D6D6805F48034EC
:1012F000022505EB92421CB9544D554305600BE0A5
:101300004C4D6D6805F400351DB1504D55430560D9
:1013100002E04D4D5543056002E04B4D056000BFB6
:1013200000BF444D6D6805F0F0010909484D6B5C44
:101330000568DD4045603F4D6D6805F4E061090AD0
:10134000434D6B5C4568DD4085603A4D6D6805F442
:101350006051C90A3E4D6B5C4568DD40C560354D46
:101360006D6805F44041890B3A4D6B5CC568B5FB6F
:10137000F3F5056130BD29B12E4A526902432D4B68
:101380005A6104E02B4A526982432A4B5A617047E2
:1013900029B1284A92690243264B9A6104E0254A02
:1013A00092698243234B9A61704729B1214AD269DD
:1013B0000243204BDA6104E01E4AD26982431D4B8E
:1013C000DA61704729B11B4AD2680243194BDA60CF
:1013D00004E0184AD2688243164BDA60704729B19C
:1013E000144A12690243134B1A6104E0114A12694C
:1013F0008243104B1A6170471249403908607047A8
:101400000F49C86470470B49C87170470948406A62
:1014100040F0807007494862704701460020054A45
:1014200092680A400AB1012000E00020704701499B
:1014300088727047001002400000FFF8FFFFF6FEC0
:10144000000042428004424200127A0000093D003E
:10145000220000203200002010B50446FB488442E0
:1014600009D101218803FFF7ADFF00214FF480402F
:10147000FFF7A8FF32E0F648844209D10121480471
:10148000FFF7ADFF00214FF40030FFF7A8FF25E084
:10149000F048844209D101218804FFF7A0FF002110
:1014A0004FF48020FFF79BFF18E0EB48844209D1FE
:1014B0000121C804FFF793FF00214FF40020FFF73C
:1014C0008EFF0BE0E548844208D101210805FFF7B3
:1014D00086FF00214FF48010FFF781FF10BD2DE93A
:1014E000F04786B005460E460024A24600BFA1463E
:1014F0000027B08900B100BF2F462C8A4CF6FF7040
:101500000440F08804432C82AC894EF6F31004406A
:10151000B08831890843718908430443AC81AC8A9F
:101520004FF6FF400440B0890443AC8201A8FFF7A6
:10153000C2FEC648874202D1DDF810A001E0DDF806
:101540000CA0A88900F4004040B10AEBCA0000EBEF
:101550000A1031684900B0FBF1F807E00AEBCA0055
:1015600000EB0A1031688900B0FBF1F86420B8FB89
:10157000F0F004012009642101FB1089A88900F41E
:10158000004040B1322000EBC900B0FBF1F000F0A8
:101590000700044308E0322000EB09106421B0FB8F
:1015A000F1F000F00F0004432C8106B0BDE8F08795
:1015B0004FF41651016000218180C18001810C210E
:1015C000418100218181704710B502460020108AB8
:1015D0004FF2FF0318400B884C8823438C88234329
:1015E000CC8823431843108210BD00210180418024
:1015F0008180C180704721B1828942F4005282818A
:1016000004E082894DF6FF731A4082817047F0B57D
:101610000346002400260025002040F66A17B94240
:1016200000D100BF1846C1F3421401F01F06012784
:1016300007FA06F5012C01D10C3004E0022C01D18F
:10164000103000E014301AB107682F43076002E041
:101650000768AF430760F0BD1AB1838A0B438382EA
:1016600002E0838A8B4383827047028A4FF6F073CD
:101670001A400282028A0A430282704782894FF22C
:10168000FF731A40828182890A438281704721B1A7
:10169000828942F00202828104E082894FF6FD7362
:1016A0001A4082817047028A4FF6DF731A40028225
:1016B000028A0A430282704721B1028A42F48042C0
:1016C000028204E0028A4BF6FF731A4002827047DE
:1016D000C1F308028280704701468888C0F3080081
:1016E0007047818941F0010181817047028BD2B23C
:1016F0000283028B42EA012202837047028B02F4CA
:101700007F420283028B0A430283704721B1828A9F
:1017100042F02002828204E0828A4FF6DF731A4090
:101720008282704721B1828A42F01002828204E0F4
:10173000828A4FF6EF731A408282704721B1828A03
:1017400042F00802828204E0828A4FF6F7731A4060
:101750008282704721B1828942F40042828103E093
:101760008289C2F30E028281704721B1828A42F4DB
:101770000062828204E0828A4FF2FF731A40828202
:101780007047828A4FF6FB731A408282828A0A432C
:101790008282704721B1828A42F00202828204E092
:1017A000828A4FF6FD731A408282704702460020FB
:1017B000B1F5007F00D100BF13880B400BB10120B1
:1017C00000E00020704701F40072B2F5007F00D104
:1017D00000BFCA430280704770B502460024002350
:1017E0000025002040F66A16B14200D100BFC1F3C7
:1017F000421501F01F03012606FA03F3012D02D161
:101800009689334006E0022D02D1168A334001E06A
:10181000968A33400C12012606FA04F416883440E6
:1018200013B10CB1012000E0002070BD10B5002202
:10183000002340F66A14A14200D100BF0A1201241D
:101840009440A3B2DC43048010BD00000038014086
:101850000044004000480040004C00400050004060
:1018600031490143314A1160704770B500210023AE
:101870000F22C47804B32D4C246804F4E064C4F54A
:10188000E064210AC1F10403CA40447804FA03F178
:101890008478144021430901254C0678A155047829
:1018A00004F01F050124AC4005786D11AD0005F171
:1018B000E025C5F8004109E0047804F01F05012483
:1018C000AC401C4D0678761145F8264070BD1A4A8A
:1018D0000A400243154B1B1F1A60704739B1134A67
:1018E000121D12680243114B1B1D1A6006E00F4ABD
:1018F000121D126882430D4B1B1D1A60704704288D
:1019000008D14FF0E021096941F004014FF0E022D5
:10191000116107E04FF0E021096921F004014FF067
:10192000E0221161704700000000FA050CED00E0B4
:1019300000E400E080E100E080FFFF1F10B50446F6
:10194000BE48844208D101218014FFF73BFD0021ED
:10195000A014FFF737FD16E0B948844208D10121F1
:101960000014FFF73CFD00212014FFF738FD0AE0CA
:10197000B448844207D10121C013FFF730FD002194
:10198000E013FFF72CFD10BD10B50022028802F411
:1019900041520B884C8823438C882343CC882343B3
:1019A0000C8923434C8923438C892343CC892343CB
:1019B0001A430280838B4FF2FF74234083830B8A88
:1019C000038210BD2DE9F04F85B005460C464FF05F
:1019D000000902274FF000084FF0010B0026B24625
:1019E000A88B4FF240010840A88302202884B5F854
:1019F0001C90A068022801D100BF38E0A08810B96F
:101A00004FF0010B01E04FF0020B8D48854200D1F1
:101A100000E000BF6846FFF74EFCDDF800A0E0885C
:101A2000B0F5007F0AD14FEA1A2000EB8000400099
:101A3000A168B0FBF1F0401D86B20BE04FEA4B10FD
:101A4000BAFBF0F000EB80004000A168B0FBF1F0C1
:101A5000401D86B20A20B6FBF0F606F00108A6EBA0
:101A60000800C0F34F074FF6FF7000EA0828022F66
:101A700001DBFF2F02DD02274FF00008E08840EA7B
:101A8000080038432884A088A18908436188084356
:101A90002188084340F4006040EA0909A5F81C9039
:101AA00005B0BDE8F08F0021018041808180C180B8
:101AB000018141818181C18107210182704700211B
:101AC000018041808180C18002218160002181816B
:101AD000704721B1028842F04002028004E002888F
:101AE0004FF6BF731A400280704721B1828B42F4D7
:101AF0008062828304E0828B4FF6FF331A40828338
:101B0000704730B5002400230C110125A540ABB26D
:101B10001AB185881D43858002E085889D438580B4
:101B200030BD1AB183880B43838002E083888B43E6
:101B300083807047818170470146888970474FF6DE
:101B4000FF62914204D0028842F48072028004E075
:101B500002884FF6FF631A400280704721B18288E5
:101B600042F00402828004E082884FF6FB731A4040
:101B70008280704702884FF2FF731A400280028809
:101B80000A4302807047018841F480510180704708
:101B900021B1028842F40052028004E002884DF62E
:101BA000FF731A400280704702460020012901D0CD
:101BB000108B00E0908A70470146088A7047B1F5A3
:101BC000804F04D1028842F48042028004E00288FF
:101BD0004BF6FF731A4002807047024600201389BB
:101BE0000B400BB1012000E000207047CA43028186
:101BF0007047F0B50246002000240023002501F0C4
:101C00000F070126BE40B4B20B1101269E40B3B2AD
:101C1000968806EA03051689264016B10DB1012003
:101C200000E00020F0BD10B5002201F00F040123F8
:101C3000A3409AB2D343038110BD0000003001409D
:101C400000380040003C004070B503460C4603E0FD
:101C500014F8015B03F8015B1500A2F10102F7D152
:101C600070BD30B5034601E003F8011B1400A2F17A
:101C70000102F9D130BD00B55A494FF42862C86855
:101C80000021FFF7EEFF57494FF4284288680021F2
:101C9000FFF7E7FF01205349087400BD002200212F
:101CA00006E05048C06830F8110000B1521C491CD1
:101CB000B1F5A86FF5D3642050434FF4A863B0FB8F
:101CC000F3F0C0B270472DE9F04106460024A0466B
:101CD0004448007C10B94349086880471EB94FF05A
:101CE000FF30BDE8F081C6F34F1506F01F0008B1C4
:101CF000681C85B240F23F541AE03A48C06830F898
:101D0000140020B908F101001FFA80F801E04FF03B
:101D10000008A8450BD1002705E03248C068E1194A
:101D200020F811507F1CAF42F7D36001D9E7641E41
:101D3000002CE2DA4FF0FF30D3E770B505462948B2
:101D4000007C20B9274908688047012070BDB5F59F
:101D5000284F11D269092348C06830F811200024A7
:101D600006E000201F4BDB680E1923F81600641CE8
:101D70009442F6DB0020E9E70220E7E770B504466D
:101D800004B970BD17488068251A2846FFF7D5FFAB
:101D900000BFF6E770B505462846FFF794FF0446F6
:101DA000601C08B9002070BD0E4880682044FAE726
:101DB00070B506460C462046FFF785FF0546681CB1
:101DC00008B9002070BD0749896848192246314684
:101DD000FFF73AFF3046FFF7D1FF024880682844FA
:101DE000F0E7000038000020704700000FB40449FD
:101DF00010B503AA029800F0C3F810BC5DF814FBFC
:101E00001C0000202DE9F0410E460446002020620F
:101E10002046E168884730B3252805D0D4E9012160
:101E20009047206A401CF2E7E16820460027884777
:101E3000050018D0A5F14100192802D820354FF42B
:101E400000673246294620462760FEF7ABF940B1CD
:101E5000012804D0F61D26F007060836D8E7361DFF
:101E6000D6E72846DAE7206ABDE8F08170B5044677
:101E70000D4621461068AFF300802188090502D580
:101E80000F4A7A4402E00E4A7A440E32002104F1ED
:101E9000240305E000F00F060009965D5E54491C1E
:101EA0000028F7D120780023000704D5702D02D038
:101EB00009B1022311322046BDE8704000F006B897
:101EC000B601000070477047704770472DE9F04732
:101ED0000D4699469246044600F12408016888069A
:101EE00004D5E06921F01001216000E00120A84242
:101EF00001DD471B00E00027A1697A1902EB090008
:101F0000081AA0612078C00602D42046AFF30080F2
:101F1000002608E0D4E901211AF806009047206A5B
:101F2000401C761C20624E45F4DB2078C0060AD5A2
:101F30002046AFF3008006E0D4E90121302090472D
:101F4000206A401C2062381EA7F10107F4DC07E07C
:101F5000D4E9012118F805009047206A401C20624E
:101F6000281EA5F10105F3DC2046AFF300802078A0
:101F7000000602D50220BDE8F0870120FBE7000043
:101F8000074B70B50D467B4400F011F80446284617
:101F900000F020F810B14FF0FF3070BD204670BD4A
:101FA00055ECFFFF01694A1C02610878704700B5D3
:101FB0008FB0CDE901310021059105497944CDE982
:101FC000031011466846FFF71DFF0FB000BD00006B
:101FD000E5FFFFFF007B00F080007047754600F0D2
:101FE00029F8AE4605006946534620F007008546AD
:101FF00018B020B5FEF79EFEBDE820404FF0000669
:102000004FF000074FF000084FF0000B21F00701E0
:10201000AC46ACE8C009ACE8C009ACE8C009ACE823
:10202000C0098D4670470446AFF300802046FEF796
:10203000CBF8000000487047A8B30020303132339D
:1020400034353637383941424344454640305800EC
:10205000303132333435363738396162636465661E
:102060004030780084200008000000204C00000070
:102070006C010008D02000084C000020BCB9000012
:102080008801000800A24A040000000000000000CF
:102090000102030406070809000000000000000018
:1020A0000000000000000000000001020304010223
:1020B000030406070809020406080000771C00084C
:1020C0009D1C00082801002028A900200000000015
:0400000508000131BD
:00000001FF
