:020000040800F2
:1000000048140020F9010008DD220008551B0008F3
:10001000A91B0008F3140008BF2D00080000000011
:10002000000000000000000000000000DD240008C7
:10003000811600080000000065230008AD270008B5
:10004000130200081302000813020008130200083C
:10005000130200081302000813020008130200082C
:10006000130200081302000813020008130200081C
:10007000130200081302000813020008130200080C
:1000800013020008130200081302000813020008FC
:1000900013020008130200081302000813020008EC
:1000A00013020008130200081302000813020008DC
:1000B00013020008130200081128000813020008A8
:1000C00013020008130200081302000813020008BC
:1000D00013020008052A0008130200081302000892
:1000E000130200081302000813020008130200089C
:1000F000130200081302000813020008130200088C
:10010000130200081302000813020008130200087B
:10011000130200081302000813020008130200086B
:10012000130200081302000813020008130200085B
:1001300000F002F800F050F80AA090E8000C8244A9
:100140008344AAF10107DA4501D100F045F8AFF286
:10015000090EBAE80F0013F0010F18BFFB1A43F0A5
:100160000103184784360000A4360000103A24BF6B
:1001700078C878C1FAD8520724BF30C830C144BF0C
:1001800004680C607047000000230024002500264E
:10019000103A28BF78C1FBD8520728BF30C148BFEA
:1001A0000B607047662903F0AA82642900F0B880CA
:1001B000632900F05884732900F05D8400207047A3
:1001C0001FB500F06FFC04000020002102F09EFF2C
:1001D000E0601FBD10B510BD00F064FD1146FFF7D3
:1001E000EFFF02F063FE00F082FD03B4FFF7F2FFC1
:1001F00003BC02F001FE000009488047094800479F
:10020000FEE7FEE7FEE7FEE7FEE7FEE7FEE7FEE7C6
:10021000FEE7FEE704480549054A064B7047000023
:10022000B127000831010008480E002048140020C2
:100230004810002048100020704700000FB4044907
:1002400010B503AA029800F01BFC10BC5DF814FB6B
:10025000280000200FB41CB5084B06AA7B44694651
:100260000090059800F0DDFB04460020694600F090
:10027000EBFB20461CBC5DF814FB0000E907000006
:1002800070B5044685690068C10601D5302600E0D6
:100290002026C00707D070BDD4E901213046904721
:1002A000206A401C20626D1EF6D570BD70B50446F4
:1002B00085690078C00707D170BDD4E901212020ED
:1002C0009047206A401C20626D1EF6D570BD70B547
:1002D0000C460546012A05D02878800600D5EA6933
:1002E000002302E0012305E05B1C934202D2E05CA4
:1002F0000028F9D1A869E618C01AA861286A18442C
:1003000028622846FFF7BCFF04E0D5E9012114F874
:10031000010B9047B442F8D32846FFF7C7FF70BDE2
:100320002DE9F0410646002410687529314616A5CE
:1003300010D0AFF30080002802DA404213A507E096
:1003400031688A0701D512A502E0490704D511A535
:10035000012401E0AFF3008000210A2206F1240706
:1003600009E0B0FBF2FCB0FBF2F302FB1C00303002
:1003700078541846491C0028F3D123462A463046B3
:10038000BDE8F04100F0E2B8000000002D000000E0
:100390002B000000200000002DE9F05F8946044694
:1003A0004FF0000ADFF874B1FB44C0F820A02046EB
:1003B000E1688847002874D0252806D0D4E90121B7
:1003C0009047206A401C2062F1E700265F462046E5
:1003D000E16888472028054607DB312D05D27819CA
:1003E00010F8200C08B10643F1E7B00701D526F05C
:1003F0000406C4F81CA00027C4F818A02A2D09D0B0
:10040000284602F0F2FC38B304EB8708303DC8F808
:10041000185019E059F8041B204604EB870291613B
:10042000E1688847012F054618D1E069002820DAE5
:1004300026F020061DE0D8F8180000EB800005EB40
:1004400040003038C8F818002046E1688847054663
:1004500002F0CBFC0028EED1012F0AD02E2D08D1BE
:100460002046E16888477F1C0546022F46F020069B
:10047000C4DBA069002803DA404246F00106A0610F
:10048000F00701D026F010066C2D0BD0682D09D096
:100490004C2D39D06A2D35D0742D35D07A2D33D0EE
:1004A00016E038E0E1682F4620468847B842054606
:1004B00009D16C2F26D04FF48060E16806432046B6
:1004C0008847054604E06C2F1AD04FF4807006432D
:1004D0000DB3A5F14100192802D8203546F4006675
:1004E0004A462946204626604E46FFF75BFE80B10D
:1004F00001280BD0F61D26F0070000F1080956E789
:100500004020E4E78020D8E70020D6E706F1040980
:100510004DE7284652E7206ABDE8F09F7C33000093
:1005200030B505460B462A4613F8014B12F8010B6D
:1005300008B1A042F8D01CB1002802D06D1CF1E730
:10054000284630BD70477047704770472DE9F04727
:100550000D4699469246044600F124080168880633
:1005600004D5E06921F01001216000E00120A842DB
:1005700001DD471B00E00027A1697A1902EB0900A1
:10058000081AA0612078C00602D42046FFF778FE42
:10059000002608E0D4E901211AF806009047206AF5
:1005A000401C761C20624E45F4DB2078C0060AD53C
:1005B0002046FFF765FE06E0D4E901213020904790
:1005C000206A401C2062381EA7F10107F4DC07E016
:1005D000D4E9012118F805009047206A401C2062E8
:1005E000281EA5F10105F3DC2046FFF75FFE207809
:1005F000000602D50220BDE8F0870120FBE7704726
:100600002DE9FF4F0C461E464FF0FF378BB0D2E965
:100610000001DDF860800A908A46C1F30A5505B9E9
:100620003D46002108464FF00000BAF1000F00F4EB
:10063000400005DA00EB80004FF4400101EA500071
:100640004FEA9059B9F1010F00DDB9460A9850EA16
:100650004A000ED044F61050A5F2FF3545432F1442
:10066000B8F1000F1ED07542291E1EDDC9F100022F
:100670001CE0B8F1010F4FF0000001D0302103E081
:10068000F24305E02154401CB042FBDB304600221F
:10069000002121540B99C1F80880C1E900200FB056
:1006A000BDE8F08FBD1B6D1CDEE74A4600DA6942EB
:1006B00006A800F081FA06AB93E8070003AB83E8D5
:1006C000070050460A9900F059FB8DE80700A0F595
:1006D00000501F3800900398002D09DD42F21F01E1
:1006E0004A46084403A90390684600F0B8FD08E0B4
:1006F000A0F500504A461F3803A90390684600F051
:10070000C2FD8DE807000004000C03D04FF0FF305D
:10071000410800E01046B8F1000F03D0002200921B
:1007200015461EE0751E05D400F0C0F93032625542
:100730006D1EF9D5B3460122084302D000227F1C6A
:1007400004E02078302801D100227F1E002A09977A
:1007500086D01DE0112D07DA00F0A8F9303262557D
:100760006D1C50EA0102F5D1084302D00098C8B1CF
:100770000EE00021681E05E0235C625C6354225495
:10078000401E491C8142F7DBAB46A81B401E099066
:10079000002004F80B000B98099AC0F80880C0E903
:1007A000002B7CE711264FF0000859E72DE9F04FA8
:1007B00088460446D21D22F0070191B0D1E900011C
:1007C000CDE90A0102F0FDFA02460B98C00F01D0F4
:1007D0002D2007E02068810701D52B2002E0202191
:1007E00001EAC000032A099001D0072A05DB03466D
:1007F0004146204600F0A0F90BE12078800601D5A3
:10080000E06900E00620B8F1650F814606D0B8F136
:10081000660F18D0B8F1670F70D131E00020B9F140
:10082000110F009001DB112301E009F101030AAA75
:1008300001A90CA8FFF7E4FEDDE90C70002609F120
:100840000105834647E001204B4600904FF00047EA
:100850000AAA01A90CA8FFF7D3FEDDE90DB00C9997
:100860005D46002610B909F101000D18B9EB05002D
:1008700003D4C0F1FF3609F10105A5EB09002BE017
:10088000B9F1010F01DA4FF001090020B9F1110FA0
:100890000090484601DD112300E003460AAA01A9A1
:1008A0000CA8FFF7ADFEDDE90C704D46002683462F
:1008B000207800070AD4AB4500DA5D4601A8012D77
:1008C00004DD411911F8011C302907D04F4502DA27
:1008D00017F1040F04DA012082460FE06D1EEEE7E7
:1008E000002F02DCED1B3E4403E0781CA84200DD33
:1008F0007D1CB81B00F1010A4FF00047207800076B
:1009000003D4AA4501DB4FF0FF3A0021B7F1004FB5
:100910000DF143088DF8431024D002202B23002F23
:1009200001DA7F422D230A21021EA0F1010000DC22
:100930005FB197FBF1FC97FBF1F201FB1C7C1746C2
:100940000CF1300C08F801CDEEE7A8F101000370BE
:100950002188090501D5452100E06521A0F10108A4
:1009600000F8011C09980FA9A1EB0807FF1D00B1B1
:100970000120411901EBEA70A1693844081A401EB0
:10098000A0612078C00602D42046FFF779FC0998C0
:1009900028B1D4E901219047206A401C20622078C8
:1009A000C00622D52046FFF76BFC1EE0002E04DBBC
:1009B000B34502DD01A8805D00E03020D4E90121CB
:1009C0009047206A401C2062761CAAF101005FEA71
:1009D000000A0AD100F066F8C0680168405CD4E9FA
:1009E00001219047206A401C2062281EA5F10105C4
:1009F000DCDC07E0D4E9012118F8010B9047206AFC
:100A0000401C2062381EA7F10107F3DC2046FFF7E7
:100A10004DFC032011B043E601694A1C02610878CD
:100A2000704700B58FB0CDE901310021059105492E
:100A30007944CDE9031011466846FFF7ADFC0FB0CD
:100A400000BD0000E5FFFFFF0A6802F8010B0A6025
:100A5000704710B5436913B1AFF3008001E0FFF7B1
:100A600036FC012010BD127800F124010A7000222A
:100A70004A700122EDE711684FF0FF32E9E700000C
:100A8000074B70B50D467B44FFF7CBFF0446284665
:100A900000F000F910B14FF0FF3070BD204670BD7E
:100AA0000724000000487047080E002030B5B0F160
:100AB0000A024FEA900E71F100034EEA817EB0EB1C
:100AC0000E0061EB91014FEA101E4EEA017E10EB21
:100AD0000E0041EB11114FEA102E4EEA016E10EBA1
:100AE0000E0041EB11214FEA104E4EEA014E10EB81
:100AF0000E0041EB1141401841F100014FEAD000D6
:100B000040EA41704FEAD10110EB80054FEA8104C1
:100B100044EA907444EB01046D1944EB0404521B45
:100B2000A3414FF0000348BF0A3200D530BD401C3E
:100B300041F1000130BD00002DE9F0411F4604469F
:100B400003260168072A01F4006004DB08B116A53A
:100B500005E016A503E008B115A500E015A521F0F4
:100B600010002060A069C01EA0610FB1401EA061EE
:100B70002046FFF785FB4FB1D4E901213846904765
:100B8000206A401C2062C01C206206E0206AFAE74E
:100B9000D4E9012115F8010B9047761EF8D22046C2
:100BA000FFF784FBBDE8F0814E414E006E616E00A0
:100BB000494E4600696E66002DE9F04781461646AB
:100BC0008AB0334878440DC88DE80D003048784429
:100BD000801C03AC0DC884E80D0041F69B3008442E
:100BE000372190FBF1F290FBF1F5A5F1800501FBB7
:100BF00012041B3C02D56442012000E00020DFF813
:100C000090A080460027FA44AAF1BE0A0DE0E00752
:100C100009D03246684607EB47010AEB810100F034
:100C200032FB8DE8070064107F1C002CEFD1184FB9
:100C30007F44AC3F18E0E80714D007EB04100DF137
:100C4000180A90E80E008AE80E00C068F04201D150
:100C500098190890324606A903A800F014FB03ABCC
:100C600083E807006D10641C002DE4D1324669460C
:100C7000B8F1000F03A802D000F0F1FA01E000F093
:100C800002FBC9E90001C9F808200AB0BDE8F087F5
:100C9000F02B0000007B00F0800070470048704798
:100CA000E80D00207546FFF7F9FFAE4605006946DE
:100CB000534620F00700854618B020B5FFF7AAFA82
:100CC000BDE820404FF000064FF000074FF000084D
:100CD0004FF0000B21F00701AC46ACE8C009ACE8CE
:100CE000C009ACE8C009ACE8C0098D4670470446AD
:100CF000AFF300802046FFF778FA00004FF0013C88
:100D000050F8042B51F8043B9A4221D1A2EB0C037A
:100D1000934313EACC1317D150F8042B51F8043B3A
:100D20009A4215D1A2EB0C03934313EACC130BD1D7
:100D300050F8042B51F8043B9A4209D1A2EB0C0362
:100D4000934313EACC13DBD04FF00000704700BF91
:100D5000D01A01BAB1FA81F101F0180122FA01F0BA
:100D6000CB40C1F12001DBB2C0B2C01A2CFA01F3B2
:100D7000D11A914311EAC311E6D170475FEA400CE2
:100D800008BF91F0000F4FEA8C234FEAC12243EADB
:100D900051514FEA1C5018BF00F5F0404FEA3000A7
:100DA00018BF41F000415FEA6C5C00F02980BCF1A3
:100DB000FF3F08BF40F080407047130C06BF12048D
:100DC0004FF0100C4FF0000C130E04BF12020CF188
:100DD000080C130F04BF12010CF1040C930F04BF95
:100DE00092000CF1020CD30F04BF52000CF1010C65
:100DF00011464FF00002A0F11F00A0EB0C0070475D
:100E000011F0004F08BF704731F000413FF4D5AFFB
:100E10000B0C06BF09044FF0100C4FF0000C0B0E2A
:100E200004BF09020CF1080C0B0F04BF09010CF1FF
:100E3000040C8B0F04BF89000CF1020CCB0F04BF14
:100E400049000CF1010CCCF12003A0EB0C0022FABC
:100E500003F302FA0CF241EA030100F101007047CA
:100E600020F07F4C80EA030023F07F47ACEB0703C0
:100E700003F57C5300F0004003F1FF032DE98049A6
:100E80004FEA154B09B44FEA144325EA0B4E24EA06
:100E900003480FF2042606EB132749083E785FEA61
:100EA000320203FB0667C7F5000707FB06F64FEAA9
:100EB00054374FEAD64606F1020607FB066CCCF122
:100EC000005C4FEA1C472CEA074C07FB06F40CFBBE
:100ED00006F504EB15464FEA961634BF00204FF096
:100EE00000404FEAD13706FB07FC4FEA1C4C0CFBD5
:100EF0000BF7D21B03FB0CF761EB07010CFB0EF7A2
:100F0000B0EB074072EB17420CFB08F734BFA2EBC3
:100F10000742B2EB074261EB17414FEA0C444FEA3C
:100F2000910706FB07FC4FEA1C4C0CFB0BF7B0EBE0
:100F3000C74072EB573203FB0CF734BFA2EBC7423A
:100F4000B2EBC74261EB57310CFB0EF7B0EBC700B9
:100F500072EB57720CFB08F734BFA2EBC702B2EB7F
:100F6000C70261EB5771039F4FEA816141EA921119
:100F700004EBCC044FEAD1374FEA826206FB07FC50
:100F800042EA90124FEA80604FEA1C4C0CFB0BF7D0
:100F9000D21B03FB0CF761EB07010CFB0EF7B0EB68
:100FA000074072EB17420CFB08F734BFA2EB074275
:100FB000B2EB074261EB17414FEA8C554FEA9107BC
:100FC00004EB9C2406FB07FC4FEA1C4C0CFB0BF7C4
:100FD000B0EBC74072EB573203FB0CF734BFA2EB08
:100FE000C742B2EBC74261EB57310CFB0EF7B0EBD7
:100FF000C70072EB57720CFB08F734BFA2EBC702B5
:10100000B2EBC70261EB577115EB4C254FEA8161DA
:1010100041EA92114FEA82624FEAD13742EA9012D6
:1010200006FB07FC44F100044FEA80604FEA1C4CC9
:101030000CFB0BF7D21B03FB0CF761EB07010CFB5E
:101040000EF7B0EB074072EB17420CFB08F734BF0A
:10105000A2EB0742B2EB074261EB174115EB1C15FF
:101060004FEA813141EA92414FEA823242EA9042AC
:101070004FEA80304FEA0C7644F1000448EA03431B
:101080004EEA0B484FF0000EB2EB080C71EB030771
:1010900024BF624639464EEB0E0E4FF0000B00188F
:1010A000524149414BEB0B0BB2EB080C71EB0307C0
:1010B0007BF1000B24BF624639464EEB0E0E4FF01B
:1010C000000B0018524149414BEB0B0BB2EB080CE3
:1010D00071EB03077BF1000B24BF624639464EEBF0
:1010E0000E0E51EA020718BF46F0010616EB0E7607
:1010F00055F1000254F1000103D5BDE88901BDE8B6
:101100000088BDE88901BDE80048B619524141EBAD
:101110000101A3F10103704780807F7E7D7C7B7A93
:101120007978777676757473727171706F6E6E6D93
:101130006C6C6B6A6A696868676666656464636339
:1011400062616160605F5F5E5E5D5D5C5C5B5B5ABF
:101150005A5959585857575656555555545453532C
:1011600052525251515050504F4F4F4E4E4D4D4D87
:101170004C4C4C4B4B4B4A4A4A49494948484847D2
:101180004747474646464545454444444443434310
:101190004342424242414141002B26D4770021D0B4
:1011A0001CB54FEA370703B44FF010004FF01001A1
:1011B0004FF000000FBCBDE810400BF1010BBBF17C
:1011C000010F08BF5FEA170722BF12F1010211F1F8
:1011D00001014FF0004143F1000300F0004043EAF9
:1011E00000007047F9D35708DAE746EA064613F1DC
:1011F000400F4FEA16461FDD13F1200FDFBF1643E5
:101200000A46002120335B42C8D0C3F1200746EADA
:10121000064602FA07F74FEA164646EA0706C3F102
:10122000200722FA03F201FA07F721FA03F14FF03F
:10123000000342EA0702B1E746EA020646EA06462A
:101240004FEA164646EA0106BCBF46EA0646360C99
:101250004FF000034FF000024FF000019EE72DE930
:10126000C048934630B491E8380007C831EA400CD2
:1012700048BF34EA430C03D5FFF7F2FDFFF78CFFBC
:10128000F0BCBDE800882DE9C048934630B491E831
:10129000380007C810F0804F08BF13F0804F03D10B
:1012A00000F005F8FFF778FFF0BCBDE8008820F0FB
:1012B0007F4780EA030023F07F4C07EB0C03A3F584
:1012C0007C5300F00040A3F1FE0392F0000F00F009
:1012D000B38095F0000F00F077802DE901494FEAC7
:1012E00011404FEA144621EA004800FB06FC24EABC
:1012F000064708FB06F607FB08F800FB07F718EBA4
:1013000006484CEB164C4FEA124B18EB07484FEAD5
:1013100015464CEB174022EA0B4E0BFB06FC25EA68
:1013200006470EFB06F607FB0EFE0BFB07F71EEB50
:10133000064E4CEB164C4FF000061EEB074E4CEBE6
:10134000174B18EB0B0840F1000018EB0E0B58EB95
:10135000000840F100008F1A4FF000013CBFC94364
:10136000661B14BFB5EB040C00213CBFC943F61B40
:101370004FEA17444EEA8E0E27EA04454FEA1C470F
:1013800004FB07622CEA074C05FB07F70CFB05F68C
:1013900004FB0CFC16EB074642EB174216EB0C461F
:1013A00042EB1C421BEB060658EB0202414146EAA7
:1013B0009E0601D5BDE80189B619524141EB0101F4
:1013C000A3F10103BDE801894FEA14454FEA114733
:1013D00024EA054621EA074C05FB07F406FB07F75C
:1013E0000CFB06F105FB0CFC11EB074144EB174429
:1013F0004FEA124711EB0C4144EB1C4422EA074C24
:1014000005FB07F206FB07F70CFB06F605FB0CFCD9
:1014100016EB074642EB174216EB0C4642EB1C4517
:101420006A1854F1000148BF7047B619524141EBA8
:101430000101A3F10103704795F0000F37D04FEA87
:1014400011424FEA144721EA024624EA074C02FB04
:1014500007F106FB07F70CFB06F402FB0CFC14EB90
:10146000074441EB17414FEA154714EB0C4441EB9D
:101470001C4125EA074C02FB07F506FB07F70CFBAE
:1014800006F602FB0CFC16EB074645EB174516EB80
:101490000C4645EB1C42121951F1000148BF704740
:1014A000B619524141EB0101A3F1010370474FEA24
:1014B00014454FEA114724EA054621EA074C05FB8B
:1014C00007F106FB07F70CFB06F24FF0000605FBE1
:1014D0000CFC12EB074241EB174112EB0C4251EBB3
:1014E0001C4148BF7047921841EB0101A3F1010371
:1014F000704700BFFEE7000001684FF6FE72114022
:1015000001600021016041608160C1604B498842F7
:1015100008D14A490839496841F00F01474A083A59
:1015200051608AE045491431884208D1434908395D
:10153000496841F0F001414A083A51607DE03F4975
:101540002831884208D13D490839496841F4706121
:101550003A4A083A516070E038493C31884208D133
:1015600036490839496841F47041344A083A5160B3
:1015700063E032495031884208D13049083949681E
:1015800041F470212D4A083A516056E02B496431EC
:10159000884208D129490839496841F47001274A2D
:1015A000083A516049E025497831884208D12349F9
:1015B0000839496841F07061204A083A51603CE0BE
:1015C0001F49884206D1011F096841F00F01021F1F
:1015D000116032E01A491431884208D11849091FB4
:1015E000096841F0F001164A121F116025E0144904
:1015F0002831884208D11249091F096841F47061F5
:101600000F4A121F116018E00D493C31884208D181
:101610000B49091F096841F47041094A121F116002
:101620000BE007495031884207D10549091F096875
:1016300041F47021024A121F1160704708000240F5
:101640000804024010B50022026847F6F0739A437E
:101650000C6A8B6823430C6923434C6923438C69D0
:101660002343CC6923434C6A23438C6A23431A43A4
:101670000260CB6843600B6883604B68C36010BD39
:1016800070472DE9F0410246002500260020002386
:101690000024002791F803C00CF00F0591F803C057
:1016A0000CF0100CBCF1000F03D091F802C04CEA12
:1016B000050591F800C0BCF1000F31D0146800207E
:1016C0002BE04FF0010C0CFA00F3B1F800C00CEA6B
:1016D00003069E4220D183004FF00F0C0CFA03F753
:1016E000BC4305FA03FC4CEA040491F803C0BCF1C6
:1016F000280F06D14FF0010C0CFA00FCC2F814C000
:101700000AE091F803C0BCF1480F05D14FF0010C7D
:101710000CFA00FCC2F810C0401C0828D1D3146099
:10172000B1F800C0BCF1FF0F34DD546800202EE09A
:1017300000F1080C4FF0010808FA0CF3B1F800C0F2
:101740000CEA03069E4221D183004FF00F0C0CFAE5
:1017500003F7BC4305FA03FC4CEA040491F803C008
:10176000BCF1280F05D100F1080C08FA0CF8C2F8FA
:10177000148091F803C0BCF1480F07D100F1080CA8
:101780004FF0010808FA0CF8C2F81080401C082835
:10179000CED35460BDE8F0810161704770B5044656
:1017A0000D462946204600F083FC2946204600F0DD
:1017B000FDF92946204600F0ADFA2946204600F002
:1017C000DDFA2946204600F035FB2946204600F088
:1017D00043FC70BDF8B56649D1F8860001F03AFEC9
:1017E00007466449384601F03BFD0746044601F0D0
:1017F000A9FC05465E4890F88A002A460B465EA181
:1018000000906348FEF726FD614962A0FEF716FDD1
:101810005749D1F8810001F01DFE07465549384669
:1018200001F01EFD0746044601F08CFC05465048B9
:1018300090F885002A460B465BA100905448FEF7BD
:1018400009FD53495EA0FEF7F9FC4949D1F8A00013
:1018500001F0E8FD07465F49384601F001FD074603
:10186000044601F06FFC05462A460B465AA148483B
:10187000FEF7F0FC46495DA0FEF7E0FC3C49B1F8FC
:10188000A40001F0E7FD07465D49384601F0E8FC99
:101890000746044601F056FC05462A460B4659A168
:1018A0003B48FEF7D7FC3A495BA0FEF7C7FC30483F
:1018B00090F8990003280DDC2D4890F899005B49B9
:1018C00051F820205AA13248FEF7C4FC30495BA0F1
:1018D000FEF7B4FC264890F88C205DA12C48FEF75A
:1018E000B9FC2B4961A0FEF7A9FC214800786421CE
:1018F00090FBF1F201FB1204224663A12448FEF79B
:10190000A9FC234967A0FEF799FC19484078642197
:1019100090FBF1F201FB1204224669A11C48FEF77C
:1019200099FC1B496DA0FEF789FC114890F87D00D9
:1019300000900F4890F87C30B0F87A206DA11448E0
:10194000FEF788FC124972A0FEF778FC084890F870
:1019500080000090064890F87F3090F87E2071A1BA
:101960000B48FEF777FC0A4975A0FEF767FCF8BD47
:10197000440400200050C3474C6F6E67697475645F
:10198000653A252E35662025316320202000000091
:10199000EC04002047505320B5C4BEADB6C8CEAA53
:1019A0002025730A000000004C6174697475646539
:1019B0003A252E35662025316320202000000000C6
:1019C00047505320B5C4CEB3B6C8CEAA2025730A5B
:1019D0000000000000002041416C7469747564656A
:1019E0003A252E31666D20202020200047505320BC
:1019F000B5C4B8DFB6C8CEAA2025730A000000001F
:101A000000007A4453706565643A252E33666B6D29
:101A10002F6820202020200047505320B5C4CBD968
:101A2000B6C8CEAA2025730A0000000000000020DE
:101A3000466978204D6F64653A25730047505320FE
:101A4000B5C4D7B4CCACCEAA2025730A00000000E0
:101A50004750532B42442056616C69642073617473
:101A6000656C6C6974653A253032640047505320C8
:101A7000B5C4B6A8CEBBCEC0D0C7CAFDC4BFCEAA1F
:101A80002025730A000000004750532056697369EF
:101A9000626C6520736174656C6C6974653A25309D
:101AA0003264000047505320B5C4BFC9BCFBCEC050
:101AB000D0C7CAFDC4BFCEAA2025730A000000000B
:101AC00042442056697369626C6520736174656C69
:101AD0006C6974653A25303264000000BFC9BCFBF4
:101AE000B1B1B6B7CEC0D0C7CAFDC4BFCEAA2025FB
:101AF000730A000055544320446174653A2530341C
:101B0000642F253032642F253032642020200000DD
:101B100047505320B5C4555443C8D5C6DACEAA2081
:101B200025730A005554432054696D653A253032B7
:101B3000643A253032643A25303264202020000097
:101B400047505320B5C4555443CAB1BCE4CEAA2073
:101B500025730A0000BFFEE708B50121102000F040
:101B600033FC4FF48070ADF8000010208DF80300B6
:101B700003208DF8020069460A48FFF782FD4FF402
:101B800080710848FFF708FE4FF40070ADF80000C0
:101B900069460448FFF775FD4FF400710148FFF7EF
:101BA000FBFD08BD0010014000BFFEE72DE9FC5F12
:101BB00007468A464FF00008CDF804A046A10198D8
:101BC000FEF7AEFC0646F079303800F0FF0B03213B
:101BD000304600F085F80546FF2D04D0701969469F
:101BE00000F007FB78704FF0000970E03AA101980F
:101BF000FEF796FC0646002460E0042000EB84001B
:101C0000C1B2304600F06CF80546FF2D0AD07019BD
:101C1000694600F0EEFAC1B208EB880207F13E0017
:101C2000815400E04CE0052000EB8400C1B2304656
:101C300000F056F80546FF2D0BD07019694600F0EC
:101C4000D8FAC1B208EB880207F13E001044417097
:101C500000E035E0062000EB8400C1B2304600F021
:101C60003FF80546FF2D0BD07019694600F0C1FA08
:101C700081B208EB880207F13E001044418000E089
:101C80001EE0072000EB8400C1B2304600F028F8C7
:101C90000546FF2D0BD07019694600F0AAFAC1B2B3
:101CA00008EB880207F13E001044017100E007E0F4
:101CB00008F1010000F0FF08601CC4B2042C9CDB9A
:101CC00000BF701C019009F1010000F0FF09D94527
:101CD0008CDBBDE8FC9F00002442444753560000C3
:101CE0000246134610E010782A2805D010782028E4
:101CF00002DB10787A2801DDFF20704710782C284D
:101D000001D1481EC1B2521C0029ECD1D01AC0B278
:101D1000F3E70000F8B505460F4616A13846FEF772
:101D2000FFFB064606213046FFF7DAFF0446FF2C8C
:101D300005D03019694600F05CFA85F88B00072160
:101D40003046FFF7CDFF0446FF2C05D03019694619
:101D500000F04FFA85F88C0009213046FFF7C0FFEC
:101D60000446FF2C05D03019694600F042FAC5F848
:101D7000A000F8BD24474E47474100002DE9F84335
:101D80000546884629A14046FEF7CAFB06460221C1
:101D90003046FFF7A5FF0446FF2C05D030196946F1
:101DA00000F027FA85F89900002713E0F81CC1B26B
:101DB0003046FFF795FF0446FF2C08D030196946DE
:101DC00000F017FAC1B205F18D00C15500E003E043
:101DD000781CC7B20C2FE9DB00BF0F213046FFF79C
:101DE0007FFF0446FF2C05D03019694600F001FA48
:101DF000A5F89A0010213046FFF772FF0446FF2C29
:101E000005D03019694600F0F4F9A5F89C001121BD
:101E10003046FFF765FF0446FF2C05D030196946B0
:101E200000F0E7F9A5F89E00BDE8F88324474E4787
:101E3000534100002DE9F04F85B00446884683A148
:101E40004046FEF76DFB074601213846FFF748FF85
:101E50000546FF2D23D0781904A900F0CAF982465F
:101E60009DF810100A2000F0B9F9BAFBF0F642F222
:101E70001070B6FBF0F0C1B27E2001556420B6FBB5
:101E8000F0F06421B0FBF1F201FB12017F2001555B
:101E90006420B6FBF0F100FB1161802001550321A5
:101EA0003846FFF71DFF0546FF2D45D0781904A9D8
:101EB00000F09FF906469DF81000801CC1B20A2070
:101EC00000F08CF9B6FBF0F044F8810F9DF810009B
:101ED000801CC1B20A2000F081F9B6FBF0F100FBD2
:101EE000116A504601F0B6FA81469DF81000C0F123
:101EF0000500C1B20A2000F071F9009001F0AAFAC1
:101F00008346494601F0BAFA8246524901F0A8F9DF
:101F1000052102900A2000F061F9216800FB01FA16
:101F2000504601F097FA0190029901F037F90390B9
:101F300001F058FA44F8810904213846FFF7D0FE31
:101F40000546FF2D02D0785D84F8850005213846CE
:101F5000FFF7C6FE0546FF2D45D0781904A900F00D
:101F600048F906469DF81000801CC1B20A2000F016
:101F700035F9B6FBF0F044F8860F9DF81000801C90
:101F8000C1B20A2000F02AF9B6FBF0F100FB116A99
:101F9000504601F05FFA81469DF81000C0F105003F
:101FA000C1B20A2000F01AF9009001F053FA8346FA
:101FB000494601F063FA8246264901F051F90521AC
:101FC00002900A2000F00AF9216800FB01FA50464D
:101FD00001F040FA0190029901F0E0F8039001F05D
:101FE00001FA44F8860906213846FFF779FE0546CE
:101FF000FF2D02D0785D84F88A0009213846FFF76A
:102000006FFE0546FF2D1ED0781904A900F0F1F8E7
:10201000064642F21070B6FBF0F0C1B27D200155C9
:102020006420B6FBF0F06421B0FBF1F201FB120179
:102030007C2001556420B6FBF0F100FB116000F537
:10204000FA60A4F87A0005B0BDE8F08F24474E523C
:102050004D43000000007042F8B504460D4612A141
:102060002846FEF75DFA064607213046FFF738FEA0
:102070000746FF2F16D0F019694600F0BAF8A4F809
:10208000A4009DF8000003280CDA9DF80000C0F1C0
:102090000300C1B20A2000F0A1F8B4F8A41048432C
:1020A000A4F8A400F8BD000024474E565447000091
:1020B0002DE9FC5F07468A464FF00008CDF804A0E2
:1020C00044A10198FEF72CFA0646F079303800F06A
:1020D000FF0B03213046FFF703FE0546FF2D04D01A
:1020E0007019694600F085F838704FF000096CE00F
:1020F00038A10198FEF714FA064600245CE004209B
:1021000000EB8400C1B23046FFF7EAFD0546FF2D23
:1021100009D07019694600F06CF8C1B208EB88026A
:10212000B81C815400E049E0052000EB8400C1B2F6
:102130003046FFF7D5FD0546FF2D0AD070196946D8
:1021400000F057F8C1B208EB8802B81C1044417087
:1021500000E033E0062000EB8400C1B23046FFF718
:10216000BFFD0546FF2D0AD07019694600F041F801
:1021700081B208EB8802B81C1044418000E01DE0E9
:10218000072000EB8400C1B23046FFF7A9FD0546E9
:10219000FF2D0AD07019694600F02BF8C1B208EB88
:1021A0008802B81C1044017100E007E008F101004A
:1021B00000F0FF08601CC4B2042CA0DB00BF701C40
:1021C000019009F1010000F0FF09D94590DBBDE85D
:1021D000FC9F0000244750475356000010B50246AC
:1021E000012000E050430B00A1F10104E1B2F9D15C
:1021F00010BD2DE9F34F81B007463C46002000900A
:10220000834681460026804628E020782D2802D18A
:1022100048F00208641C20782C2802D020782A2854
:1022200000D11CE020782E2803D148F00108641C5E
:1022300009E02078392802DC2078302803DA4FF0D2
:10224000000900260BE008F0010010B1701CC6B2B6
:1022500003E009F1010000F0FF09641CD5E700BFAD
:1022600008F0020000B17F1C00250EE0A9F101007A
:10227000401BC1B20A20FFF7B1FF795D3039009AE7
:1022800000FB01200090681CC5B24D45EEDB052E19
:1022900000DD05260298067000250EE0701E401B2A
:1022A000C1B20A20FFF79AFF09F101012944795CC4
:1022B000303900FB01BB681CC5B2B542EEDB3146CC
:1022C0000A20FFF78BFF009901FB00BA08F002001B
:1022D00008B1CAF1000A5046BDE8FE8F7047000001
:1022E00070B5002100230F22C47804B3154C246874
:1022F00004F4E064C4F5E064210AC1F10403CA40B7
:10230000447804FA03F184781440214309010E4C07
:102310000678A155047804F01F050124AC40057827
:102320006D11AD0005F1E025C5F8004109E0047824
:1023300004F01F050124AC40044D0678761145F8E1
:10234000264070BD0CED00E000E400E080E100E01C
:1023500002490143024A1160704700000000FA057B
:102360000CED00E07047000029B1064A52690243B3
:10237000044B5A6104E0034A52698243014B5A619B
:10238000704700000010024029B1064AD26902439A
:10239000044BDA6104E0034AD2698243014BDA61FB
:1023A000704700000010024029B1064A126902433A
:1023B000044B1A6104E0034A12698243014B1A611B
:1023C000704700000010024029B1064A926902439A
:1023D000044B9A6104E0034A92698243014B9A617B
:1023E000704700000010024029B1064AD26802433B
:1023F000044BDA6004E0034AD2688243014BDA609E
:10240000704700000010024030B500210022002477
:1024100000232D4D6D6805F00C0121B1042905D074
:10242000082923D105E0294D056022E0274D0560EC
:102430001FE0254D6D6805F47012234D6D6805F49D
:102440008034022505EB92421CB9214D55430560AD
:102450000BE01D4D6D6805F400351DB11C4D554355
:10246000056002E0194D5543056002E0174D056017
:1024700000BF00BF144D6D6805F0F0010909154D4E
:102480006B5C0568DD4045600F4D6D6805F4E061EB
:10249000090A104D6B5C4568DD4085600A4D6D682A
:1024A00005F46051C90A0B4D6B5C4568DD40C560A1
:1024B000054D6D6805F44041890B074D6B5CC5689F
:1024C000B5FBF3F5056130BD0010024000127A0043
:1024D00000093D002E0000203E000020704710B58E
:1024E00000F002F810BD00000CB500200190009033
:1024F0003348006840F480303149086000BF3048FC
:10250000006800F4003000900198401C0190009891
:1025100018B90198B0F5A06FF1D12948006800F40E
:10252000003010B10120009001E0002000900098E0
:10253000012843D12348006840F010002149086079
:102540000846006820F0030008600846006840F074
:10255000020008601A484068194948600846406807
:1025600048600846406840F480604860084640681B
:1025700020F47C1048600846406840F4E810486049
:102580000846006840F08070086000BF0C48006892
:1025900000F000700028F9D00948406820F00300DE
:1025A000074948600846406840F00200486000BFA4
:1025B0000348406800F00C000828F9D10CBD000069
:1025C000001002400020024070B50025002604E003
:1025D000681C85B2052000F035FC1448008800F422
:1025E000004008B9642DF3DB642D19DA0F48008828
:1025F000C0F30E0500240CE00D48005D832800D1D7
:1026000009E00B48005D842801D1032603E0601C2B
:1026100084B2AC42F0DB00BFAC4202D1022600E043
:102620000126002001490880304670BD420000208C
:10263000E809002070B50546144C4AF2A01020802D
:102640004FF4806060800520207100206071A571CA
:102650000120E071207961794840A1794840E17911
:102660004840207240F60D20A4F809000B212046B6
:1026700000F072F8C82000F0E5FB054951F825008C
:1026800000F004FAFFF7A0FF70BD0000E80500208D
:102690000437000870B505460D4C4AF2A0102080A2
:1026A0004FF4407060800E20207165710120A07190
:1026B000207961794840A1794840E07140F60D20C9
:1026C00020810A21204600F047F8FFF77DFF70BD0A
:1026D000E805002070B505462E461E4C4FF47F409D
:1026E00000EA152040EA15604FF47F0101EA052158
:1026F00008434FF07F4101EA056140EA01064AF2D2
:10270000A01020804FF4E0606080652020710120DF
:102710006071C4F80660A072207961794840D4F8ED
:10272000061080EA1160C1F307414840E188C1F317
:1027300007214840A1794840A17A4840E07240F61C
:102740000D20A0810E21204600F006F8FFF73CFF87
:1027500070BD0000E805002010B5024600200CE026
:1027600000BF074B1B8803F04003002BF9D0135C1C
:10277000034C241D2380431C98B28842F0DB10BD1B
:1027800000440040042808D14FF0E021096941F0DD
:1027900004014FF0E022116107E04FF0E0210969E8
:1027A00021F004014FF0E0221161704770470000F2
:1027B00010B51348006840F0010011490860084650
:1027C0004068104908400E494860084600680E49B4
:1027D00008400B4908600846006820F48020086023
:1027E0000846406820F4FE0048604FF41F008860EF
:1027F000FFF775FE4FF000600449086010BD00004F
:10280000001002400000FFF8FFFFF6FE08ED00E0B8
:1028100010B50121084800F062F860B1074800884F
:1028200040F40040054908800121034800F048F8C1
:10283000002000F031F810BD0008004042000020E8
:102840007FB505460C4601210420FFF79DFDADF83C
:102850000450ADF800400020ADF80600ADF80200CD
:1028600069460C4800F058F801221146094800F06A
:1028700047F81E208DF80C0001208DF80D00022075
:102880008DF80E0001208DF80F0003A8FFF728FD3A
:102890007FBD00000008004010B5044644B100218F
:1028A000064800F036F80121044800F00CF803E077
:1028B0000021024800F007F810BD000000080040A9
:1028C000CA430282704721B1028842F001020280AD
:1028D00004E002884FF6FE731A400280704730B55C
:1028E0000246002000230024158A05EA0103958989
:1028F00005EA010413B10CB1012000E0002030BD55
:102900001AB183890B43838102E083898B438381DE
:102910007047818470470000002202881D4B984256
:102920000ED01D4B98420BD0B0F1804F08D01B4BFE
:10293000984205D01A4B984202D01A4B984204D1C3
:102940004FF68F731A404B881A43174B984207D0A3
:10295000164B984204D04FF6FF431A40CB881A43D7
:1029600002808B8883850B8803850A4B98420BD0A5
:10297000094B984208D00E4B984205D00D4B984217
:1029800002D00D4B984201D10B7A0386012383823A
:1029900070470000002C014000340140000400405A
:1029A00000080040000C00400010004000140040EF
:1029B00000400140004401400048014070B58CB027
:1029C00006460C46154601210220FFF7CDFC304695
:1029D000FEF792FD019402951020039000200490D0
:1029E00005908020069000200790089009904FF4F1
:1029F00080500A9000200B9001A93046FEF722FE7D
:102A00000CB070BD10B540F225511D4800F016F90C
:102A100010B31B4800F0CEF9C4B21A48008800F485
:102A20000040C8B91748008800F4804060B10A2C03
:102A300003D000201349088020E01248008840F4A9
:102A400000401049088019E00D2C06D10D4800887F
:102A500040F480400B49088010E00A480088C0F329
:102A60000D0009490C5407480088401C054908809E
:102A700008460088C72801DD0020088010BD00003E
:102A8000003801402C0000201E05002010B586B043
:102A9000044601211020FFF797FC0121C804FFF72D
:102AA00073FC2F4800F07CF84FF48060ADF8100004
:102AB00003208DF8120018208DF8130004A929486E
:102AC000FEF7DFFD4FF40060ADF8100004208DF834
:102AD000130004A92348FEF7D4FD00940020ADF8AC
:102AE0000400ADF80600ADF80800ADF80C000C20AD
:102AF000ADF80A0069461A4800F0F0F8012280217A
:102B0000174800F043F8184A1549091D1748FFF700
:102B100055FF0121124800F02DF8012240F2255105
:102B20000F4800F0B5F834208DF8140002208DF81D
:102B3000150003208DF8160001208DF8170005A858
:102B4000FFF7CEFB41F61F4140F2E730FFF778FE7A
:102B5000002007490880FFF79FFE06B010BD000067
:102B6000004C004000100140E805002058040240DD
:102B70004200002021B1828942F40052828104E0A7
:102B800082894DF6FF731A40828170471AB1838A99
:102B90000B43838202E0838A8B4383827047000069
:102BA00010B504462048844209D101218803FFF76B
:102BB0001BFC00214FF48040FFF716FC32E01B485D
:102BC000844209D101214804FFF7EEFB00214FF4B4
:102BD0000030FFF7E9FB25E01548844209D10121C7
:102BE0008804FFF7E1FB00214FF48020FFF7DCFBB6
:102BF00018E01048844209D10121C804FFF7D4FB32
:102C000000214FF40020FFF7CFFB0BE00A4884427D
:102C100008D101210805FFF7C7FB00214FF4801000
:102C2000FFF7C2FB10BD0000003801400044004027
:102C300000480040004C00400050004070B5024683
:102C4000002400230025002040F66A16B14200D17E
:102C500000BFC1F3421501F01F03012606FA03F37A
:102C6000012D02D19689334006E0022D02D1168A49
:102C7000334001E0968A33400C12012606FA04F430
:102C80001688344013B10CB1012000E0002070BD63
:102C9000F0B50346002400260025002040F66A1700
:102CA000B94200D100BF1846C1F3421401F01F061B
:102CB000012707FA06F5012C01D10C3004E0022CA3
:102CC00001D1103000E014301AB107682F430760BB
:102CD00002E00768AF430760F0BD00002DE9F04750
:102CE00086B005460E460024A24600BFA146002736
:102CF000B08900B100BF2F462C8A4CF6FF7004400B
:102D0000F08804432C82AC894EF6F3100440B0885E
:102D100031890843718908430443AC81AC8A4FF67A
:102D2000FF400440B0890443AC8201A8FFF76CFB6C
:102D30001F48874202D1DDF810A001E0DDF80CA0A9
:102D4000A88900F4004040B10AEBCA0000EB0A1069
:102D500031684900B0FBF1F807E00AEBCA0000EB6C
:102D60000A1031688900B0FBF1F86420B8FBF0F07C
:102D700004012009642101FB1089A88900F40040A6
:102D800040B1322000EBC900B0FBF1F000F00700C9
:102D9000044308E0322000EB09106421B0FBF1F09D
:102DA00000F00F0004432C8106B0BDE8F08700005E
:102DB0000038014001468888C0F30800704700BF12
:102DC000FEE7490050EAC12018BF04204A0D18BF91
:102DD00040F0010040F2FF72B2EB515F08BF40F0DB
:102DE0000200012808BF0520704730380A2801D2A8
:102DF0000120704700207047014600BF7047000067
:102E000010B56FF00400FFF7BDFC0A4800680A49DE
:102E1000B0FBF1F0094908700846007800EB40016A
:102E2000C1EBC0104FF6FF7101EAC00004490880F1
:102E300010BD00001000002000127A0024000020C5
:102E4000260000200146114A12884A434FF0E02331
:102E50005A6100229A611A46126942F001021A610F
:102E600000BF4FF0E022106900F001021AB100F437
:102E70008032002AF5D04FF0E022126922F00102E0
:102E80004FF0E0231A6100229A617047260000206B
:102E900000BF054A128802F04002002AF9D0C2B2EF
:102EA000014B1B1D1A80704700380140FF274FF06F
:102EB0000008FFF7A5FF4FF4A060FFF749FA4FF4B1
:102EC000E13000F0D3F83DA0FDF7B8F94FF416401B
:102ED000FFF7DCFDFEF740FE3CA0FDF7AFF9052053
:102EE000FFF7D8FB002822D03CA0FDF7A7F93FA0B0
:102EF000FDF7A4F900BF4FF41650FFF7C7FD0320FC
:102F0000FFF798FB4FF41640FFF7C0FD3D48FFF771
:102F1000E1FB07460520FFF7BDFB08B1002FEAD112
:102F200039A0FDF78BF94FF4FA70FFF78BFF43E000
:102F30000120FFF787FF3AA0FDF780F93C480088A1
:102F400000F4004008B33BA0FDF778F9384800884A
:102F5000C0F30E05002405E03A48005D3A490855E3
:102F6000601C84B2AC42F7DB00203149088036494E
:102F700008553648FEF712FCFEF72CFCB8F1000F9E
:102F800003D0314932A0FDF759F933A0FDF756F9C6
:102F90004FF4FA7096FBF0F100FB116050B9324823
:102FA000006808B9012000E000202F490860642073
:102FB000FFF748FF701C86B2BAE700006920616D18
:102FC000206F6B5F312121210A0000006920616DB3
:102FD000206F6B5F332121210A0000006920616DA1
:102FE000206F6B5F342121210A0000005331323100
:102FF0003646382D42442053657474696E672E2E10
:103000002E0A0000A0860100533132313646382D99
:1030100042442053657420446F6E6521210A0000EC
:103020006920616D206F6B5F352121210A0000004E
:10303000420000206920616D206F6B5F36212121E5
:103040000A000000E8090020440000204404002099
:103050000D0A25730D0A00006920616D206F6B5FFA
:10306000372121210A000000A001224210B586B0BC
:103070000446012144F20400FFF7A6F94FF4007062
:10308000ADF8140003208DF8160018208DF81700F5
:1030900005A91C48FEF7F5FA4FF48060ADF814005E
:1030A00004208DF8170005A91648FEF7EAFA252036
:1030B0008DF8000003208DF801008DF8020001203A
:1030C0008DF803006846FFF70BF901940020ADF876
:1030D0000800ADF80A00ADF80C00ADF810000C20A7
:1030E000ADF80E0001A90848FFF7F8FD012240F2F3
:1030F00025510548FFF7CCFD01210348FFF73AFDB4
:1031000006B010BD000801400038014010B500298C
:103110000AD00878002807D005487844FDF7EEFD6E
:10312000002801D0002010BD0248784410BD0000E6
:10313000EE060000E60600000808A0F500114FEAC0
:103140003101704743004FEAD30C4FEA3C0C434037
:103150001FBF40070CF1605113F0FE4F70471CF089
:10316000006F03D100200CF0004170470CF00043C9
:1031700043EA507010B540EACC0000F000FA00BFFE
:10318000000000924FEA0001FFF7D6BF4FF0004168
:103190004FF00000A1F500217047000090EA010FF8
:1031A00048BF81F0004100F13C82421A3CBF801AC6
:1031B00089184FEAD0524FF07F4C1CEA410FA2EB26
:1031C000D15318BF9CEA026F00F03B804FF0004CD7
:1031D0004CEA00204CEA012121FA03FC10EB0C0C14
:1031E0001ED202F1FF325FEA1C2040EBC25038BF12
:1031F00070471CF07F0F4FEA400C18BFBCF17F4FA7
:1032000038BF7047C3F12003994008BF20F0010088
:10321000BCF17F4F38BF7047A0F1C04000F0F5B956
:103220004FEA3C00000A40EBC25028BF1CF0FF0FE1
:103230004FEA400CE6D018BFBCF17F4F38BF704753
:10324000EAE79CEA026F05D010EA5C0F08BF00F0C5
:103250000040704710B500F092F900BF64FBBE3E1D
:103260004FF47F0C1CEAD0121EBF1CEAD11392EA65
:103270000C0F93EA0C0F00F0858090EA010F48BF15
:1032800042F4807240F4000C41F400002CF07F41C5
:1032900020F07F4000B58142A2EB03020FF2081C30
:1032A000ACEB504EC0F100009EF800E04FEA4E0E2D
:1032B00000FB0EFC38BF49004FEA2C1C02F5FA0255
:1032C0000CFB0EF34FEACE1E4FEA112C4FEAC12140
:1032D0000EEB635E42EB22420EFB0CFC4FEA1C53EA
:1032E00000FB03114FEA112C4FEA01310EFB0CFCDD
:1032F0004FEADC4C00FB0C11C14228BF09184CEB13
:1033000003335DF804EB10EB410143EBC250B2F51F
:103310007C0F38BF704729D512F0F00F1CBF00F1A9
:10332000C04000F00040704700818283848586871A
:1033300088898B8C8D8E8F919293959697999A9C74
:103340009D9FA0A2A3A5A7A8AAACAEB0B2B3B5B7E3
:10335000B9BCBEC0C2C5C7C9CCCED1D4D7D9DCDFB9
:10336000E2E6E9ECF0F3F7FAFE0000004FEA400C69
:103370000CF1807CBCF17E4F28BF7047B0F1C0409B
:1033800000F043B990EA010F0CEAD11348BF42F4B0
:103390008072624538BF634507D213F47F0F16D0A1
:1033A00080EA010000F00040704710B500F0E7F837
:1033B000097EFC3E00F005B880EA010000F0004004
:1033C000704780EA010000F0004000F01EB912F4DE
:1033D0007F0F04BF0248704780EA010000F015B972
:1033E0000000C07FC10DD1F19E0206DB4FEA002331
:1033F00043F0004323FA02F07047004207D54FEA3A
:103400004001B1F1FE4F02D24FF00000704710B5FD
:1034100000F0B5F849922480002070476FEA200040
:103420007047000010F0004148BF4042B0FA80F3FE
:1034300010FA03F2C3F19D030BD051EAC35101EB23
:103440001220530638BF704700F1010008BF20F07A
:1034500001007047B0FA80F310FA03F2C3F19D0344
:103460000AD0D90501EB1220530638BF704700F18E
:10347000010008BF20F00100704700004FF47F0CEE
:103480001CEAD0121EBF1CEAD11392EA0C0F93EA79
:103490000C0F00F0478090EA010F48BF42F48072A1
:1034A0004FF0004C4CEA00204CEA012102EB0302F1
:1034B000A0FB0113A2F50002002918BF43F001038D
:1034C0005B0028BF4FEA330342EB22425FEA132C32
:1034D0004CEBC2502EBFBCEB436FB2F57C0F704774
:1034E0004FEA036CBCF1004F08BF20F00100B2F5B9
:1034F0007C0F38BF70470BD582F0FF0212F5803F7A
:10350000C8BF704700F1C040D8BF00F0004070470E
:1035100000F5000C5FEA4C0C48BF7047B0F1C040AA
:1035200000F073B890EA010F0CEAD11348BF42F4DF
:103530008072624538BF634504D280EA010000F022
:103540000040704710B500F01AF800BF8900013E36
:1035500000F007B800F009B85FEA410C5FEA1C6CA4
:1035600008D080EA010000F050B85FEA400C5FEA42
:103570001C6CF6D14FF00040A0F5800070470EF1B2
:10358000020E2EF0030E5EF8044B244204D44FEAE0
:103590004102B2F17F4F11D84FEA4003B3F17F4FA0
:1035A0000CD80ED14FEAD07CB2F17F4F0CEB4C0C13
:1035B0000CF1020C08BF4CEBD17C04E04FF0080C7E
:1035C00001E04FEAD17C0CEB4C0324FA03F404F045
:1035D0000704B4F1040C06D20EEB840CBDE81040D5
:1035E0004CF0010C6047DFE80CF0070802024FF0D6
:1035F0000040A0F5800010BD0846420018BFD2F17F
:10360000807288BF00F0004010BDFF2141EAD05019
:10361000C005704790EA010F48BF81F000413FF5B7
:10362000C4AD421A04D882F00042A0EB020011445B
:103630004FEAD0524FF07F4C1CEA410FA2EBD1531E
:1036400018BF9CEA026F4AD04FF0004C4CEA0020B1
:103650004CEA012121FA03FCB0EB0C0C0FD412F060
:10366000FE0F36D05FEA4C001DD5001240EBC25071
:1036700038BF70471CF03F0F18BF70470BE0A2F136
:1036800001025FEA1C2040EBC25038BF70471CF0BB
:103690007F0F18BF7047C3F12003994014BF401E2D
:1036A00020F00100704780084FEA122308BF7047DE
:1036B000B0FA80FCA2EB0C02CCF1280C60FA0CF002
:1036C00093EA122F04BF00EBC25070474FEAC37059
:1036D0007047130A5FEADC1008BF7047F6E79CEA00
:1036E000026F04D010EA5C0F08BF0020704710B5CD
:1036F000FFF745FF40DFF63E81F000407047FDF7E1
:1037000055B80000C012000080250000004B0000EA
:103710000096000000E1000000C2010000840300E8
:103720000008070000100E00040000080000000060
:103730000000000200010000100000000240000034
:10374000000000A00000000005400000000000C8CC
:10375000000000000C4000000000409C0000000041
:10376000194000000020BCBE0000000034400000F2
:10377000BFC91B8E00000004B5400000504BCFD0E5
:103780006607E2CF010000006C4100003E8251AAB2
:10379000DFEEA73401000000D9420000DCB5A0E252
:1037A0003A301F97FFFFFFFFB4450000FD25A0C87A
:1037B000E9A3C14FFFFFFFFFFF3F000000000080B3
:1037C00000000000FF3F000000000080000000003B
:1037D000203244200000000020334420000000007C
:1037E0004661696C000000002438000800000020D9
:1037F000440000006C010008683800084400002004
:1038000004140000880100081C00000043000000B0
:10381000F8FFFFFF0C0000000E0000000F0000008A
:103820002E000000E0370008E0370008D03700081D
:10383000D837000800A24A04000000000000000081
:103840000102030406070809000000000000000050
:103850000000000000000102030401020304060747
:0838600008090204060800003B
:0400000508000131BD
:00000001FF
